:1000000045C0000061C000005FC000005DC000008E
:100010005BC0000059C0000057C0000055C0000080
:1000200053C0000051C000004FC000004DC0000090
:100030004BC0000049C0000047C0000045C00000A0
:10004000CCC3000041C000000C9442093DC0000038
:100050003BC0000039C0000037C0000035C00000C0
:1000600033C0000031C000002FC000002DC00000D0
:100070002BC0000029C0000027C0000025C00000E0
:1000800023C0000021C000001FC0000011241FBEBB
:10009000CFEFD0E1DEBFCDBF13E0A0E0B1E0EAE6F4
:1000A000FBE100E00BBF02C007900D92AA39B10737
:1000B000D9F727E0AAE9B3E001C01D92A135B20744
:1000C000E1F79DD40C94B30D9BCF81B3877881BBAE
:1000D000089520B3422F50E021E030E002C0220F0B
:1000E000331F6A95E2F7242335232115310519F1D1
:1000F000FC01E656FC4F408141111DC040911A049D
:1001000050911B0460911C0470911D044F305105E7
:1001100061057105A0F110921A0410921B0410924F
:100120001C0410921D04FC01E656FC4F21E02083C4
:1001300080E090E00895232B29F5FC01E656FC4F62
:100140002081213011F540911A0450911B046091D7
:100150001C0470911D044F30510561057105C0F0FC
:1001600010921A0410921B0410921C0410921D0489
:10017000FC01E656FC4F108281E090E0089580E09B
:1001800090E0089580E090E0089580E090E0089588
:1001900080E090E008958B3241F08D3241F08A3258
:1001A00041F08F3241F482E0089581E0089581E0CA
:1001B000089582E0089580E00895CF92DF92EF9253
:1001C000FF92CF93DF93E09101011E160CF086C0E1
:1001D0008091000188230CF483C09FEF9E0F24E0E0
:1001E000E202F0011124E255FC4F2081318142816D
:1001F00053816FEF690F60930101C92F092E000C25
:10020000DD0BFE01EE0FFF1FEE0FFF1FE255FC4F4F
:10021000C080D180E280F3806FEF680F60930001AF
:10022000E82F880FFF0BE256FC4F80818B3249F09C
:1002300018F48A3251F156C08D32A9F08F32B9F1DB
:1002400051C090930101C20ED31EE41EF51ECC0FC7
:10025000DD1FCC0FDD1FC255DC4FC882D982EA8278
:10026000FB8281E042C090930101C21AD30AE40AE2
:10027000F50ACC0FDD1FCC0FDD1FC255DC4FC88245
:10028000D982EA82FB8281E030C090930101C701EC
:10029000B6010E94FA09CC0FDD1FCC0FDD1FC2553D
:1002A000DC4F688379838A839B8381E01EC021159C
:1002B000310541055105C1F090930101C701B60117
:1002C0000E941C0ACC0FDD1FCC0FDD1FC255DC4F76
:1002D000288339834A835B8381E007C080E005C0BF
:1002E00080E003C080E001C080E0DF91CF91FF900B
:1002F000EF90DF90CF9008958F929F92AF92BF9230
:10030000CF92DF92EF92FF920F931F93CF93DF93E1
:100310007C016B018FEF8093010180930001F70155
:1003200001900020E9F731978F010E191F09C0E0F5
:10033000D0E0B2C05701AC0EBD1ED5018C91803209
:1003400011F42196A9C0883281F4E0910001EF30C8
:100350000CF0C9C0EF5FE09300010E2E000CFF0B04
:10036000E256FC4F8083219697C0282F30E020531F
:1003700031092A30310500F143C0880F991FAA1FA7
:10038000BB1F4C015D01880C991CAA1CBB1C880C6E
:10039000991CAA1CBB1C880D991DAA1DBB1D50E0F1
:1003A00040535109052E000C660B770B840F951FE7
:1003B000A61FB71F219603C080E090E0DC01C017A4
:1003C000D10758F4F701EC0FFD1F4081242F30E0D6
:1003D000205331092A30310580F2E0910101EF30DC
:1003E0000CF083C0EF5FE093010124E0E202F00132
:1003F0001124E255FC4F80839183A283B3834CC0C8
:100400008932D1F404C0D9DE882309F477C0809101
:10041000000188234CF0E82F082E000CFF0BE25659
:10042000FC4F9081983279F788230CF460C081509A
:1004300080930001219630C08B3261F08D3251F0F3
:100440008A3241F08F3231F080E058C0B6DE882326
:1004500009F454C090900001992074F0E92D092C02
:10046000000CFF0BE256FC4F808195DE882ED501F3
:100470008C9191DE881654F7BEE0B915D4F1E1E015
:10048000E90DE09300010E2E000CFF0BD5018C91BD
:10049000E256FC4F80832196C017D10708F44ACF5B
:1004A0000BC00E2E000CFF0BE256FC4F80818832F1
:1004B00011F183DE882311F1E0910001EE238CF726
:1004C00080910101811119C08091AE039091AF0319
:1004D000A091B003B091B103F60180839183A28310
:1004E000B38381E00BC080E009C080E007C080E0FA
:1004F00005C080E003C080E001C080E0DF91CF91C3
:100500001F910F91FF90EF90DF90CF90BF90AF9031
:100510009F908F9008958FE08ABB8FEF8BBB0895DB
:10052000CF93DF93CDB7DEB760970FB6F894DEBFF9
:100530000FBECDBF20E1E0E2F1E0DE0111960190B7
:100540000D922A95E1F72FEF2BBB4BB3E3E0F0E0E0
:10055000E61BF70B21E030E002C0220F331FEA95C3
:10056000E2F7209524232BBB20E030E002C02F5F70
:100570003F4F24313105DCF349B3FC01349621E0CF
:1005800030E00E2E02C0220F331F0A94E2F750E033
:100590002423352302C035952795EA95E2F72111EA
:1005A00018C0FC01EE0FFF1FEE0FFF1FEE5FFE4FA6
:1005B000E60FF71F3081313061F4880F991F880FE3
:1005C000991F8E5F9E4FFC01E60FF71F108280E09F
:1005D0002FC0213051F5FC01EE0FFF1FEE0FFF1F62
:1005E000EE5FFE4FE60FF71F2081211120C0880F1C
:1005F000991F880F991FFC01EE5FFE4FE60FF71F52
:1006000021E020831092160410921704109218040F
:100610001092190421E030E02C0F3D1F820F931F30
:10062000FC01E60FF71F808103C080E001C080E07D
:1006300060960FB6F894DEBF0FBECDBFDF91CF91AD
:1006400008950F931F93CF93DF9300E010E00EC047
:10065000BE01C80165DF81110DC0219602C0C0E056
:10066000D0E0C430D105A4F30F5F1F4F0430110553
:10067000B4F380E0DF91CF911F910F91089585B37E
:10068000826085BB85E38A95F1F7000085B38D7F95
:1006900085BB85E38A95F1F70000089595B39F70B7
:1006A000807F892B85BBEBDF8FE193E00197F1F72A
:1006B00000C000000895CF93DF93C82FDFB7F894F0
:1006C00085B38E7F85BB8C2FE9DF8C2F8295807F51
:1006D000E5DFDFBFC150C23038F48FED9EE20197F5
:1006E000F1F700C0000006C08FE891E00197F1F734
:1006F00000C00000DF91CF910895CF93DF93C82F02
:10070000DFB7F89485B3816085BB8C2FC7DF8C2F52
:100710008295807FC3DFDFBF8FE891E00197F1F71B
:1007200000C00000DF91CF910895CF93DF93EC01DB
:1007300002C02196E2DF88818111FBCFDF91CF914A
:10074000089581E0B8DF8FE39FE10197F1F700C0E2
:100750000000089584B3836F84BB15BA2FEF81EE38
:1007600094E0215080409040E1F700C0000085B344
:100770008E7F85BB80E392DF8FE19EE40197F1F7E6
:1007800000C0000080E38ADF87E592E00197F1F77F
:1007900000C0000080E382DF87E592E00197F1F777
:1007A00000C0000080E27ADF8FE39FE10197F1F75C
:1007B00000C0000088E27FDF8CE07DDF86E07BDF29
:1007C000C0CF0895611102C0805805C0613011F496
:1007D000805401C080E06FCF08951F920F920FB632
:1007E0000F9211248F939F93AF93BF9386E082BFA4
:1007F00080911A0490911B04A0911C04B0911D04D7
:100800000196A11DB11D80931A0490931B04A0931F
:100810001C04B0931D048091160490911704A091BC
:100820001804B09119040196A11DB11D80931604FE
:1008300090931704A0931804B093190480911204A4
:1008400090911304A0911404B09115040196A11D78
:10085000B11D8093120490931304A0931404B093D9
:100860001504BF91AF919F918F910F900FBE0F9084
:100870001F90189586E082BF84E083BF87B78160B0
:1008800087BF0895CF93DF93CDB7DEB761970FB6DB
:10089000F894DEBF0FBECDBF54DF87EC90E0019728
:1008A000F1F700C000008091F003811106C060E004
:1008B00089DF8CE391E039DF34C08131B8F090E01A
:1008C0008F519C4F9F938F938DE491E09F938F93D3
:1008D0001F9281E18F93CE0101969F938F935AD6F9
:1008E0000FB6F894DEBF0FBECDBF15C081EF93E009
:1008F0009F938F938DE491E09F938F931F9281E15B
:100900008F93CE0101969F938F9344D60FB6F894A0
:10091000DEBF0FBECDBF60E080E054DFCE010196A8
:1009200004DF61E080E04EDF80E591E0FEDE61966D
:100930000FB6F894DEBF0FBECDBFDF91CF91089503
:10094000FF920F931F93CF93DF93CDB7DEB7A99795
:100950000FB6F894DEBF0FBECDBFCE01019649D4CD
:10096000F0DE87EC90E00197F1F700C000002D81E8
:100970009E818F811F922F931F929F931F928F931F
:1009800081E691E09F938F931F920F2EF1E1FF2E4E
:10099000F02DFF928E01075E1F4F1F930F93FAD524
:1009A00060E080E00FDFC801C0DE29819A818B8181
:1009B0001F922F931F929F931F928F9387E791E02F
:1009C0009F938F931F92FF92015111091F930F93D1
:1009D000E1D561E080E0F6DEC801A7DE0FB6F8944D
:1009E000DEBF0FBECDBFA9960FB6F894DEBF0FBE17
:1009F000CDBFDF91CF911F910F91FF900895CF93BD
:100A0000DF93CDB7DEB7E7970FB6F894DEBF0FBE22
:100A1000CDBF19821A821B821C82D1D482E191E05F
:100A200090934E0780934D0792D324DF4EDB73DD06
:100A300091DE78948FE991E07DD583DE60E080E0FF
:100A4000C1DE80ED91E071DE61E080E0BBDE81EE31
:100A500091E06BDE2FEF3DE389E421503040804090
:100A6000E1F700C0000082EF91E064D59FEFE1EE76
:100A7000F4E09150E040F040E1F700C0000002DFF8
:100A8000F12C66E070E083E090E023DB019789F5CC
:100A900081E090911104911180E0809311048823EA
:100AA00019F08EE891E002C084E991E09F938F9362
:100AB00081E292E09F938F932AD5809111040F9049
:100AC0000F900F900F9081110BC01092160410928E
:100AD00017041092180410921904D4DEF12C09C0E6
:100AE0001092120410921304109214041092150420
:100AF00027DF8091110481111DC08091160490910F
:100B00001704A0911804B091190480369A4EA105DB
:100B1000B10580F0F1100EC081E0809311041092B5
:100B2000120410921304109214041092150408DF9A
:100B3000FF24F39480911104811127C182DD182FC5
:100B4000882309F48EC0803209F48DC01F928F93E0
:100B50008EE392E09F938F93DAD48091EF030F900E
:100B60000F900F900F90882341F01D3331F01092B9
:100B7000F0031092F1031092EF031D3309F05EC0F1
:100B80008091F003882309F470C081EF93E09F9374
:100B90008F9385E592E09F938F93B9D4BE016F5FE9
:100BA0007F4F81EF93E0A8DB0F900F900F900F9095
:100BB000882339F18C818F938B818F938A818F93D6
:100BC00089818F938DE692E09F938F931F9281E1AD
:100BD0008F93CE0105969F938F93DCD48C818F9356
:100BE0008B818F938A818F9389818F9386E792E09F
:100BF0009F938F938CD40FB6F894DEBF0FBECDBFFA
:100C00000CC081E1E9E8F3E0DE01159601900D9258
:100C10008A95E1F78CE892E08DD461E080E0D2DD46
:100C20008BE992E082DD61E080E0CCDDCE010596CB
:100C30007CDD81E08093EF0310E01AC0E091F003C7
:100C4000EE31A8F481E08E0F8093F003F0E0EF50D6
:100C5000FC4F1083E82FF0E0EF50FC4F108211E0C2
:100C600007C010E005C010E003C010E001C010E0B4
:100C700063E070E080E090E02CDA019719F58CEAEF
:100C800092E058D41092160410921704109218048F
:100C9000109219048091EF03882341F01092F00321
:100CA0001092F1031092EF0311E00CC0E091F003F9
:100CB000EE2341F0E150E093F003F0E0EF50FC4F01
:100CC000108211E064E070E081E090E002DA0197C8
:100CD00031F585EC92E02ED4109216041092170490
:100CE00010921804109219048091EF03882321F0C8
:100CF0001092F0031092EF03E091F003EE3178F4DC
:100D000081E08E0F8093F003F0E0EF50FC4F98E20B
:100D10009083E82FF0E0EF50FC4F108211E065E087
:100D200070E082E090E0D5D9019731F588ED92E04E
:100D300001D4109216041092170410921804109205
:100D400019048091EF03882321F01092F003109290
:100D5000EF03E091F003EE3178F481E08E0F8093A1
:100D6000F003F0E0EF50FC4F99E29083E82FF0E0C1
:100D7000EF50FC4F108211E0111184DDEFE1FEE431
:100D80003197F1F700C000007CCE63E070E080E0B6
:100D900090E09FD9019791F58091EE038F5F80934A
:100DA000EE03873058F01092EE03F89484E294E05A
:100DB00048D278948BEE92E0BDD314C0813029F4F0
:100DC000F89484E294E015D278948091EE031F9217
:100DD0008F9381E193E09F938F9399D30F900F901E
:100DE0000F900F9088EE93E0A0E0B0E080931204A3
:100DF00090931304A0931404B093150464E070E07E
:100E000081E090E066D9019709F090C08091EE03EF
:100E1000882309F48BC0833039F128F4813061F0E4
:100E20008230B1F06CC0853009F452C008F444C07F
:100E3000863009F459C063C090912A04992321F0A7
:100E4000915090932A045BC093E690932A0457C074
:100E500090912904923020F09150909329044FC032
:100E60009CE0909329044BC09CE0E0E3F1E0DE01BC
:100E7000569601900D929A95E1F790912A049370FD
:100E800011F49DE19F8B90912804923020F09150B5
:100E90009093280434C0A4E2B4E01596EC91159721
:100EA000F0E0319726E130E02C0F3D1FE20FF31FF9
:100EB000908114969C9323C090912604992321F04D
:100EC0009150909326041BC097E19093260417C07D
:100ED00090912504992321F09150909325040FC0FF
:100EE0009BE3909325040BC090912404992321F057
:100EF00091509093240403C09BE3909324041F9289
:100F00008F9389E493E09F938F9301D388EE93E0CE
:100F1000A0E0B0E08093120490931304A093140413
:100F2000B09315040F900F900F900F9065E070E054
:100F300082E090E0CED8019709F08AC08091EE035C
:100F4000882309F485C0833031F128F4813061F0C1
:100F50008230A9F066C0853009F44EC008F441C063
:100F6000863009F454C05DC090912A04933620F471
:100F70009F5F90932A0455C010922A0452C090910A
:100F800029049C3020F49F5F909329044AC091E08B
:100F90009093290446C09CE0E0E3F1E0DE01569620
:100FA00001900D929A95E1F790912A04937011F4B3
:100FB0009DE19F8BE4E2F4E09481E581F0E03197DC
:100FC00026E130E02C0F3D1FE20FF31F2081921726
:100FD00020F49F5F9093280424C091E0909328040C
:100FE00020C090912604973120F49F5F90932604AF
:100FF00018C01092260415C0909125049B3320F44C
:101000009F5F909325040DC0109225040AC0909113
:1010100024049B3320F49F5F9093240402C0109219
:1010200024041F928F9389E693E09F938F936FD24E
:1010300088EE93E0A0E0B0E0809312049093130454
:10104000A0931404B09315040F900F900F900F907D
:101050008091120490911304A0911404B09115048E
:10106000883E9340A105B10508F40BCD10921204FF
:101070001092130410921404109215048091EE0340
:10108000811102C05DDCFDCC04E214E0F801248192
:10109000958186811F922F931F929F931F928F930A
:1010A00081E691E09F938F931F920F2EF1E1EF2E37
:1010B000F02DEF92CE0146969F938F936BD2F8015D
:1010C0002081918182811F922F931F929F931F9263
:1010D0008F9387E791E09F938F931F92EF92CE01BA
:1010E00087969F938F9356D20FB6F894DEBF0FBEAC
:1010F000CDBF8091EE03833091F028F4813049F028
:10110000823051F017C0853081F060F0863081F078
:1011100011C08AE28C8F0EC08AE28F8F0BC08AE2E8
:101120008AA308C08AE28DA705C08AE288AB02C004
:101130008AE28BAB60E080E045DBCE014696F5DAD3
:1011400061E080E03FDBCE018796EFDA9ACC88E45D
:1011500080937000109271000895982F92959F705F
:10116000990F292F220F220F920F8F70890F089548
:101170009DEC899F912D112496959695969520E149
:10118000929FA0011124990F292F220F220F920F55
:10119000891B842B089584EA8093740080917400E5
:1011A0008823E4F7089584E98093740085E38A95A1
:1011B000F1F7000008958093730084E88093740031
:1011C000809174008823E4F7089584EC8093740080
:1011D000809174008823E4F780917300089584E877
:1011E00080937400809174008823E4F780917300E9
:1011F0000895CF93DF93EC01F894CDDF80EDDBDF32
:1012000080E0D9DFC8DF81EDD6DFDFDF8F77A5DFB4
:101210008883DBDFA2DF8983D8DF8F739EDF8A8339
:10122000D4DF9BDF8B83D1DF98DF8C83CEDF95DF2C
:101230008D83D5DF92DF8E83B6DF7894DF91CF91F7
:101240000895CF93DF93EC01A6DF80EDB4DF80E05B
:10125000B2DF88818DDFAFDF89818ADFACDF8A81F1
:1012600087DFA9DF8B8184DFA6DF8C8181DFA3DFAD
:101270008D817EDFA0DF8E817BDF9DDF94DFDF91BC
:10128000CF9108951F920F920FB60F9211240BB6B3
:101290000F922F933F934F935F936F937F938F930F
:1012A0009F93AF93BF93EF93FF93CF93DF931F92DF
:1012B000CDB7DEB78CB1898389818A3019F08981F5
:1012C0008D30C1F5809122049091230401962AE08B
:1012D00030E0B9019ED0FC0180912004909121045E
:1012E000B90197D0E817F90709F453C020912204F7
:1012F0003091230480911E0490911F0440E5429F89
:10130000F001439FF00D1124E55DFB4FE80FF91F3D
:10131000108210921F0410921E048091220490915A
:10132000230401966AE070E074D0909323048093C4
:1013300022042FC0809122049091230401962AE078
:1013400030E0B90166D0FC01809120049091210425
:10135000B9015FD0E817F907E1F0609122047091BC
:10136000230480911E0490911F049C012F5F3F4F26
:1013700030931F0420931E04498150E5569F90012D
:10138000579F300D1124255D3B4FF901E80FF91FE0
:1013900040830F90DF91CF91FF91EF91BF91AF917B
:1013A0009F918F917F916F915F914F913F912F917D
:1013B0000F900BBE0F900FBE0F901F9018951092BC
:1013C00090008FEC89B98BB182608BB98AB1886942
:1013D0008AB908955D9BFECF8CB90895CF93C82F2D
:1013E0008A3011F48DE0F6DF8C2FF4DF80E090E09E
:1013F000CF910895DB018F939F933AD0BF91AF9126
:10140000A29F800D911DA39F900DB29F900D11245E
:10141000089597FB072E16F4009406D077FD08D0A8
:1014200031D007FC05D03EF4909581959F4F0895EB
:10143000709561957F4F0895052E97FB16F40094E3
:101440000FD057FD05D032D007FC02D046F408C0BB
:1014500050954095309521953F4F4F4F5F4F0895E0
:1014600090958095709561957F4F8F4F9F4F089510
:101470003FD0A59F900DB49F900DA49F800D911D0E
:1014800011240895AA1BBB1B51E107C0AA1FBB1F53
:10149000A617B70710F0A61BB70B881F991F5A9500
:1014A000A9F780959095BC01CD010895A1E21A2E6F
:1014B000AA1BBB1BFD010DC0AA1FBB1FEE1FFF1FF8
:1014C000A217B307E407F50720F0A21BB30BE40B48
:1014D000F50B661F771F881F991F1A9469F760958F
:1014E0007095809590959B01AC01BD01CF01089549
:1014F000A29FB001B39FC001A39F700D811D112455
:10150000911DB29F700D811D1124911D0895CF93DF
:10151000DF93CDB7DEB7AE014B5F5F4FFA0161914C
:101520007191AF0180914D0790914E076FD0DF917F
:10153000CF9108950F931F93CF93DF93E0914D07C1
:10154000F0914E07238121FF1BC08C01D0E0C0E049
:10155000F80181918F0160914D0770914E07DB0179
:101560001896ED91FC911997882331F00995892BF4
:1015700079F3DFEFCFEFECCF8AE00995892B19F0F3
:101580008FEF9FEF02C08D2F9C2FDF91CF911F9186
:101590000F9108950F931F93CF93DF93CDB7DEB7CD
:1015A0002E970FB6F894DEBF0FBECDBF0D891E89F2
:1015B0008F89988D26E02C831A83098397FF02C0B8
:1015C00080E090E801979E838D83AE01455E5F4F7A
:1015D000698D7A8DCE01019619D04D815E8157FDBE
:1015E0000AC02F813885421753070CF49A01F8017D
:1015F000E20FF31F10822E960FB6F894DEBF0FBED7
:10160000CDBFDF91CF911F910F9108952F923F92FF
:101610004F925F926F927F928F929F92AF92BF9202
:10162000CF92DF92EF92FF920F931F93CF93DF93AE
:10163000CDB7DEB72B970FB6F894DEBF0FBECDBF88
:101640006C017B018A01FC0117821682838181FF74
:10165000BFC1CE0101963C01F6019381F70193FDD4
:10166000859193FF81917F01882309F4ADC1853273
:1016700039F493FD859193FF81917F01853221F4A7
:10168000B60190E0D6D1E8CF912C212C312CFFE18E
:10169000F315D8F08B3279F038F4803279F0833258
:1016A000A1F4232D20611DC08D3261F0803369F4D7
:1016B000232D216016C0832D8260382EE32DE46037
:1016C0003E2E2AC0F32DF8601DC037FC2DC020ED42
:1016D000280F2A3040F08E32B9F436FC75C1232D24
:1016E0002064322E19C036FE06C08AE0989E200D76
:1016F0001124922E11C0EAE02E9E200D1124222EDC
:10170000F32DF0623F2E08C08C3621F4832D8068C3
:10171000382E02C0883641F4F70193FD859193FF7E
:1017200081917F018111B3CF982F9F7D9554933084
:1017300028F40C5F1F4F9FE399830DC0833631F06F
:10174000833771F0833509F055C020C0F8018081DE
:1017500089830E5F1F4F88248394912C530112C0FC
:101760002801F2E04F0E511CF801A080B18036FE36
:1017700003C0692D70E002C06FEF7FEFC5014ED14D
:101780004C018201F32DFF773F2E15C0280122E086
:10179000420E511CF801A080B18036FE03C0692DB5
:1017A00070E002C06FEF7FEFC5012DD14C01F32D2A
:1017B000F0683F2E820133FC19C0822D90E088161C
:1017C0009906A0F4B60180E290E033D12A94F5CFD7
:1017D000F50137FC859137FE81915F01B60190E0FC
:1017E00028D121102A9421E0821A910881149104B1
:1017F00079F7E1C0843611F0893639F5F80137FE02
:1018000007C060817181828193810C5F1F4F08C086
:1018100060817181072E000C880B990B0E5F1F4FA2
:10182000F32DFF763F2E97FF09C090958095709518
:1018300061957F4F8F4F9F4FF0683F2E2AE030E039
:10184000A30133D1882E861844C0853731F4232D67
:101850002F7EB22E2AE030E025C0932D997FB92E3D
:101860008F36C1F018F4883579F0AEC0803719F0A2
:10187000883721F0A9C0E92FE061BE2EB4FE0DC06B
:10188000FB2DF460BF2E09C034FE0AC0292F26604C
:10189000B22E06C028E030E005C020E130E002C0F2
:1018A00020E132E0F801B7FE07C0608171818281DA
:1018B00093810C5F1F4F06C06081718180E090E0D2
:1018C0000E5F1F4FA301F1D0882E8618FB2DFF77E6
:1018D0003F2E36FE0DC0232D2E7FA22E891458F4E4
:1018E00034FE0BC032FC09C0832D8E7EA82E05C0AD
:1018F000B82CA32C03C0B82C01C0B92CA4FE0FC077
:10190000FE01E80DF11D8081803321F49A2D997E2E
:10191000A92E09C0A2FE06C0B394B39404C08A2DB8
:10192000867809F0B394A3FC10C0A0FE06C0B214E0
:1019300080F4280C922C9B180DC0B21458F4B601F8
:1019400080E290E076D0B394F8CFB21418F42B185C
:1019500002C0982C212CA4FE0FC0B60180E390E0B9
:1019600068D0A2FE16C0A1FC03C088E790E002C0C8
:1019700088E590E0B6010CC08A2D867851F0A1FE72
:1019800002C08BE201C080E2A7FC8DE2B60190E0CC
:1019900050D0891430F4B60180E390E04AD09A9494
:1019A000F8CF8A94F301E80DF11D8081B60190E033
:1019B00040D08110F6CF222009F44ECEB60180E24D
:1019C00090E037D02A94F7CFF6018681978102C044
:1019D0008FEF9FEF2B960FB6F894DEBF0FBECDBFF3
:1019E000DF91CF911F910F91FF90EF90DF90CF90FB
:1019F000BF90AF909F908F907F906F905F904F902F
:101A00003F902F900895FC010590615070400110A7
:101A1000D8F7809590958E0F9F1F0895FC01615017
:101A2000704001900110D8F7809590958E0F9F1F00
:101A300008950F931F93CF93DF93FB01238121FD23
:101A400003C08FEF9FEF2CC022FF16C04681578145
:101A5000248135814217530744F4A081B1819D014F
:101A60002F5F3F4F318320838C93268137812F5FF7
:101A70003F4F3783268314C08B01EC01FB010084A8
:101A8000F185E02D0995892BE1F6D80116968D9107
:101A90009C911797019617969C938E931697CE015B
:101AA000DF91CF911F910F910895FA01AA27283055
:101AB00051F1203181F1E8946F936E7F6E5F7F4F1B
:101AC0008F4F9F4FAF4FB1E03ED0B4E03CD0670F97
:101AD000781F891F9A1FA11D680F791F8A1F911DEA
:101AE000A11D6A0F711D811D911DA11D20D009F43A
:101AF00068943F912AE0269F11243019305D31937C
:101B0000DEF6CF010895462F4770405D4193B3E064
:101B10000FD0C9F7F6CF462F4F70405D4A3318F00B
:101B2000495D31FD4052419302D0A9F7EACFB4E0BC
:101B3000A6959795879577956795BA95C9F7009774
:101B40006105710508959B01AC010A2E0694579515
:101B5000479537952795BA95C9F7620F731F841F6C
:0A1B6000951FA01D0895F894FFCF13
:101B6A00FFFF01010101010101010101010101015F
:101B7A0001010000000200000000EE090000000060
:101B8A0020303D2B3132332A3435362D3738392F30
:101B9A001F1C1F1E1F1E1F1F1E1F1E1F456E746542
:101BAA007220457870722E2E2E2020200025730078
:101BBA0052656164792D2D2D2D2D2D2D2D2D2D2D37
:101BCA000020203230253032642D253032642D2514
:101BDA003032642020200020202020253032643A30
:101BEA00253032643A253032642020202000434CCC
:101BFA004F434B0043414C43554C41544F52000D07
:101C0A000A3D3D3D204D61747269782043616C63E1
:101C1A00756C61746F72202620445331333037203B
:101C2A0052544320426F6F746564203D3D3D0D0060
:101C3A0020204D61747269782043616C63202020F2
:101C4A0000202053797374656D2052656164792090
:101C5A0020005B44454255475D20466F7263696EBA
:101C6A006720445331333037204F7363696C6C619A
:101C7A00746F7220746F2053746172742E2E2E0D3D
:101C8A00005B4D4F44455D20537769746368656412
:101C9A0020746F202573204D6F64650D0A005B4B1D
:101CAA0045595041445D20507265737365643A200A
:101CBA0025630D0A005B43414C435D204576616C08
:101CCA00756174696E673A2025730D0A00416E7357
:101CDA003A20256C64005B43414C435D2053756395
:101CEA00636573733A20256C640D0A005B43414CAB
:101CFA00435D204572726F72210D00202020202042
:101D0A002020202020202020202020005B42555423
:101D1A00544F4E5D2030202D3E204261636B73701C
:101D2A006163650D005B425554544F4E5D2031206E
:101D3A002D3E202728270D005B425554544F4E5DF7
:101D4A002032202D3E202729270D005B5254435F65
:101D5A0053455455505D2054696D6520536176652D
:101D6A0064205375636365737366756C6C79210DB2
:101D7A00005B5254435F53455455505D204D6F6488
:101D8A00652053776974636865642E20437572729F
:101D9A00656E742045646974204974656D20436FCB
:101DAA0064653A2025640D0A005B5254435F53452B
:101DBA005455505D204974656D202564204465633F
:101DCA007265617365640D0A005B5254435F534543
:101DDA005455505D204974656D20256420496E6311
:101DEA007265617365640D0A00416E733A2045722B
:0A1DFA00726F7220202020202000CC
:00000001FF
