:1000000045C0000061C000005FC000005DC000008E
:100010005BC0000059C0000057C0000055C0000080
:1000200053C0000051C000004FC000004DC0000090
:100030004BC0000049C0000047C0000045C00000A0
:10004000C2C3000041C000009FC600003DC00000C8
:100050003BC0000039C0000037C0000035C00000C0
:1000600033C0000031C000002FC000002DC00000D0
:100070002BC0000029C0000027C0000025C00000E0
:1000800023C0000021C000001FC0000011241FBEBB
:10009000CFEFD0E1DEBFCDBF12E0A0E0B1E0EEE6F1
:1000A000F6E100E00BBF02C007900D92A03FB10740
:1000B000D9F726E0A0EFB2E001C01D92A739B20740
:1000C000E1F76DD40C94350B9BCF81B3877881BB5E
:1000D000089520B3422F50E021E030E002C0220F0B
:1000E000331F6A95E2F7242335232115310519F1D1
:1000F000FC01E051FD4F408141111DC0409167035B
:10010000509168036091690370916A034F30510503
:1001100061057105A0F110926703109268031092B7
:10012000690310926A03FC01E051FD4F21E0208336
:1001300080E090E00895232B29F5FC01E051FD4F6C
:100140002081213011F5409167035091680360913F
:10015000690370916A034F30510561057105C0F064
:1001600010926703109268031092690310926A0359
:10017000FC01E051FD4F108281E090E0089580E0A5
:1001800090E0089580E090E0089580E090E0089588
:1001900080E090E008958B3241F08D3241F08A3258
:1001A00041F08F3241F482E0089581E0089581E0CA
:1001B000089582E0089580E00895CF92DF92EF9253
:1001C000FF92CF93DF93E09101011E160CF084C0E3
:1001D0008091000188230CF481C09FEF9E0F24E0E2
:1001E000E202F0011124EC5FFC4F20813181428159
:1001F00053816FEF690F60930101C92F092E000C25
:10020000DD0BFE01EE0FFF1FEE0FFF1FEC5FFC4F3B
:10021000C080D180E280F3806FEF680F60930001AF
:10022000E82F880FFF0BEC50FD4F80818B3249F097
:1002300018F48A3251F154C08D32A9F08F32B1F1E5
:100240004FC090930101C20ED31EE41EF51ECC0FC9
:10025000DD1FCC0FDD1FCC5FDC4FC882D982EA8264
:10026000FB8281E040C090930101C21AD30AE40AE4
:10027000F50ACC0FDD1FCC0FDD1FCC5FDC4FC88231
:10028000D982EA82FB8281E02EC090930101C701EE
:10029000B60132D6CC0FDD1FCC0FDD1FCC5FDC4F9B
:1002A000688379838A839B8381E01DC02115310592
:1002B00041055105B9F090930101C701B6013ED641
:1002C000CC0FDD1FCC0FDD1FCC5FDC4F28833983C3
:1002D0004A835B8381E007C080E005C080E003C003
:1002E00080E001C080E0DF91CF91FF90EF90DF9040
:1002F000CF9008958F929F92AF92BF92CF92DF924C
:10030000EF92FF920F931F93CF93DF937C016B01CA
:100310008FEF8093010180930001F701019000208D
:10032000E9F731978F010E191F09C0E0D0E0B2C084
:100330005701AC0EBD1ED5018C91803211F421966F
:10034000A9C0883281F4E0910001EF300CF0C9C0FF
:10035000EF5FE09300010E2E000CFF0BEC50FD4F01
:100360008083219697C0282F30E0205331092A300E
:10037000310500F143C0880F991FAA1FBB1F4C0114
:100380005D01880C991CAA1CBB1C880C991CAA1C1A
:10039000BB1C880D991DAA1DBB1D50E0405351097F
:1003A000052E000C660B770B840F951FA61FB71F39
:1003B000219603C080E090E0DC01C017D10758F41B
:1003C000F701EC0FFD1F4081242F30E0205331094D
:1003D0002A30310580F2E0910101EF300CF083C04A
:1003E000EF5FE093010124E0E202F0011124EC5FF1
:1003F000FC4F80839183A283B3834CC08932D1F4B4
:1004000004C0DBDE882309F477C0809100018823D3
:100410004CF0E82F082E000CFF0BEC50FD4F9081A4
:10042000983279F788230CF460C0815080930001E2
:10043000219630C08B3261F08D3251F08A3241F01A
:100440008F3231F080E058C0B8DE882309F454C000
:1004500090900001992074F0E92D092C000CFF0BFD
:10046000EC50FD4F808197DE882ED5018C9193DE74
:10047000881654F7BEE0B915D4F1E1E0E90DE09338
:1004800000010E2E000CFF0BD5018C91EC50FD4F9E
:1004900080832196C017D10708F44ACF0BC00E2ED7
:1004A000000CFF0BEC50FD4F8081883211F185DE8E
:1004B000882311F1E0910001EE238CF78091010176
:1004C000811119C08091040390910503A091060346
:1004D000B0910703F60180839183A283B38381E007
:1004E0000BC080E009C080E007C080E005C080E06C
:1004F00003C080E001C080E0DF91CF911F910F9198
:10050000FF90EF90DF90CF90BF90AF909F908F9033
:1005100008958FE08ABB8FEF8BBB0895CF93DF9355
:10052000CDB7DEB760970FB6F894DEBF0FBECDBF74
:1005300020E1E0E2F1E0DE01119601900D922A95B2
:10054000E1F72FEF2BBB4BB3E3E0F0E0E61BF70B3B
:1005500021E030E002C0220F331FEA95E2F7209538
:1005600024232BBB20E030E002C02F5F3F4F24311B
:100570003105DCF349B3FC01349621E030E00E2E66
:1005800002C0220F331F0A94E2F750E024233523E0
:1005900002C035952795EA95E2F7211118C0FC01B4
:1005A000EE0FFF1FEE0FFF1FEE5FFE4FE60FF71F70
:1005B0003081313061F4880F991F880F991F8E5F49
:1005C0009E4FFC01E60FF71F108280E027C021300C
:1005D00011F5FC01EE0FFF1FEE0FFF1FEE5FFE4F48
:1005E000E60FF71F2081211118C0880F991F880F6F
:1005F000991FFC01EE5FFE4FE60FF71F21E02083FD
:1006000021E030E02C0F3D1F820F931FFC01E60F0D
:10061000F71F808103C080E001C080E060960FB6C4
:10062000F894DEBF0FBECDBFDF91CF9108950F9339
:100630001F93CF93DF9300E010E00EC0BE01C8010E
:100640006DDF81110DC0219602C0C0E0D0E0C43042
:10065000D105A4F30F5F1F4F04301105B4F380E000
:10066000DF91CF911F910F91089585B3826085BB73
:1006700085E38A95F1F7000085B38D7F85BB85E31F
:100680008A95F1F70000089595B39F70807F892BBC
:1006900085BBEBDF8FE193E00197F1F700C000002D
:1006A0000895CF93DF93C82FDFB7F89485B38E7F7B
:1006B00085BB8C2FE9DF8C2F8295807FE5DFDFBF44
:1006C000C150C23038F48FED9EE20197F1F700C0BF
:1006D000000006C08FE891E00197F1F700C000002C
:1006E000DF91CF910895CF93DF93C82FDFB7F894B0
:1006F00085B3816085BB8C2FC7DF8C2F8295807F6F
:10070000C3DFDFBF8FE891E00197F1F700C0000081
:10071000DF91CF910895CF93DF93EC0102C0219632
:10072000E2DF88818111FBCFDF91CF91089581E0D5
:10073000B8DF8FE39FE10197F1F700C00000089553
:1007400084B3836F84BB15BA2FEF81EE94E0215000
:1007500080409040E1F700C0000085B38E7F85BBEC
:1007600080E392DF8FE19EE40197F1F700C0000083
:1007700080E38ADF87E592E00197F1F700C000008F
:1007800080E382DF87E592E00197F1F700C0000087
:1007900080E27ADF8FE39FE10197F1F700C000006C
:1007A00088E27FDF8CE07DDF86E07BDFC0CF0895CD
:1007B000611102C0805805C0613011F4805401C03D
:1007C00080E06FCF08951F920F920FB60F92112401
:1007D0008F939F93AF93BF9386E082BF809167030F
:1007E00090916803A0916903B0916A030196A11DDD
:1007F000B11D8093670390936803A0936903B0933E
:100800006A03BF91AF919F918F910F900FBE0F9090
:100810001F90189586E082BF84E083BF87B7816010
:1008200087BF0895CF93DF93CDB7DEB761970FB63B
:10083000F894DEBF0FBECDBF7ADF87EC90E0019762
:10084000F1F700C0000080914503811106C060E00F
:10085000AFDF80E391E05FDF34C08131B8F090E03A
:100860008A5C9C4F9F938F9381E491E09F938F9339
:100870001F9281E18F93CE0101969F938F930CD4A9
:100880000FB6F894DEBF0FBECDBF15C086E493E06F
:100890009F938F9381E491E09F938F931F9281E1C7
:1008A0008F93CE0101969F938F93F6D30FB6F89452
:1008B000DEBF0FBECDBF60E080E07ADFCE010196E3
:1008C0002ADF61E080E074DF84E491E024DF619658
:1008D0000FB6F894DEBF0FBECDBFDF91CF91089564
:1008E000FF920F931F93CF93DF93CDB7DEB7A997F6
:1008F0000FB6F894DEBF0FBECDBFCE0101961ED25B
:1009000016DF87EC90E00197F1F700C000002D8121
:100910009E818F811F922F931F929F931F928F937F
:1009200085E591E09F938F931F920F2EF1E1FF2EAB
:10093000F02DFF928E01075E1F4F1F930F93ACD3D4
:1009400060E080E035DFC801E6DE29819A818B8195
:100950001F922F931F929F931F928F938BE691E08C
:100960009F938F931F92FF92015111091F930F9331
:1009700093D361E080E01CDFC801CDDE0FB6F894B0
:10098000DEBF0FBECDBFA9960FB6F894DEBF0FBE77
:10099000CDBFDF91CF911F910F91FF900895CF931D
:1009A000DF93CDB7DEB765970FB6F894DEBF0FBE05
:1009B000CDBF19821A821B821C8283D282E191E010
:1009C00090939406809393067AD124DF7EDBA1DD99
:1009D000B7DE789483E991E02FD3A9DE60E080E070
:1009E000E7DE84EC91E097DE61E080E0E1DE85ED1A
:1009F00091E091DE2FEF8DE399E42150804090400B
:100A0000E1F700C0000086EE91E016D32FEF81EEF3
:100A100094E0215080409040E1F700C0000002DFE8
:100A200000E010E066E070E083E090E052DB0197C8
:100A300011F581E090916603911180E08093660347
:100A4000882319F082E891E002C088E891E09F9342
:100A50008F9385E192E09F938F93DBD28091660321
:100A60000F900F900F900F90811102C0DBDE03C03A
:100A700037DF00E010E080916603811111C1D7DDFE
:100A8000F82E882309F491C020E2821709F48FC060
:100A90001F928F9382E392E09F938F93BAD28091BB
:100AA00044030F900F900F900F90882349F08DE32F
:100AB000F81631F010924503109246031092440349
:100AC0009DE3F9125EC080914503882309F471C04B
:100AD00086E493E09F938F9389E492E09F938F93B2
:100AE00098D2BE016F5F7F4F86E493E003DC0F90E6
:100AF0000F900F900F90882339F18C818F938B8109
:100B00008F938A818F9389818F9381E692E09F935F
:100B10008F931F9281E18F93CE0105969F938F93C0
:100B2000BBD28C818F938B818F938A818F938981A4
:100B30008F938AE692E09F938F936BD20FB6F894CF
:100B4000DEBF0FBECDBF0CC081E1EFEDF2E0DE01F4
:100B5000159601900D928A95E1F780E892E06CD2AB
:100B600061E080E025DE8FE892E0D5DD61E080E0A5
:100B70001FDECE010596CFDD81E080934403F12C8A
:100B80001BC0E0914503EE31B0F481E08E0F8093FD
:100B90004503F0E0EA5BFC4FF082E82FF0E0EA5B0F
:100BA000FC4F1082FF24F39407C0F12C05C0F12CF8
:100BB00003C0F12C01C0F12C63E070E080E090E014
:100BC00088DA0197E9F480EA92E036D28091440312
:100BD000882349F010924503109246031092440373
:100BE000FF24F3940DC0E0914503EE2349F0E1505A
:100BF000E0934503F0E0EA5BFC4F1082FF24F3949E
:100C000064E070E081E090E064DA0197F9F489EB48
:100C100092E012D280914403882321F01092450380
:100C200010924403E0914503EE3180F481E08E0F91
:100C300080934503F0E0EA5BFC4F98E29083E82F55
:100C4000F0E0EA5BFC4F1082FF24F39465E070E073
:100C500082E090E03EDA0197F9F48CEC92E0ECD17E
:100C600080914403882321F010924503109244039D
:100C7000E0914503EE3180F481E08E0F80934503CF
:100C8000F0E0EA5BFC4F99E29083E82FF0E0EA5B4A
:100C9000FC4F1082FF24F394FF2051F0C3DD08C005
:100CA0000F5F1F4F0832110518F01ADE00E010E048
:100CB0008FE19EE40197F1F700C00000B3CE88E415
:100CC00080937000109271000895982F92959F70F4
:100CD000990F292F220F220F920F8F70890F0895DD
:100CE00084EA80937400809174008823E4F7089567
:100CF00084E98093740085E38A95F1F700000895F4
:100D00008093730084E8809374008091740088233A
:100D1000E4F7089584EC8093740080917400882334
:100D2000E4F780917300089584E8809374008091C3
:100D300074008823E4F7809173000895CF93DF93C4
:100D4000EC01CEDF80EDDCDF80E0DADFC9DF81EDB2
:100D5000D7DFE0DF8F77B9DF8883DCDFB6DF898319
:100D6000D9DF8F73B2DF8A83D5DFAFDF8B83D2DF2A
:100D7000ACDF8C83CFDFA9DF8D83D6DFA6DF8E8348
:100D8000B7DFDF91CF9108951F920F920FB60F92A8
:100D900011240BB60F922F933F934F935F936F9352
:100DA0007F938F939F93AF93BF93EF93FF93CF93D3
:100DB000DF931F92CDB7DEB78CB1898389818A30EA
:100DC00019F089818D30C1F580916F039091700386
:100DD00001962AE030E0B9019ED0FC0180916D03BC
:100DE00090916E03B90197D0E817F90709F453C041
:100DF00020916F033091700380916B0390916C038D
:100E000040E5429FF001439FF00D1124EF58FC4F45
:100E1000E80FF91F108210926C0310926B038091FF
:100E20006F039091700301966AE070E074D0909324
:100E3000700380936F032FC080916F0390917003B4
:100E400001962AE030E0B90166D0FC0180916D0383
:100E500090916E03B9015FD0E817F907E1F0609156
:100E60006F037091700380916B0390916C039C01F0
:100E70002F5F3F4F30936C0320936B03498150E504
:100E8000569F9001579F300D11242F583C4FF90168
:100E9000E80FF91F40830F90DF91CF91FF91EF9101
:100EA000BF91AF919F918F917F916F915F914F9182
:100EB0003F912F910F900BBE0F900FBE0F901F9080
:100EC0001895109290008FEC89B98BB182608BB924
:100ED0008AB188698AB908955D9BFECF8CB908955F
:100EE000CF93C82F8A3011F48DE0F6DF8C2FF4DF1A
:100EF00080E090E0CF910895DB018F939F933AD0EB
:100F0000BF91AF91A29F800D911DA39F900DB29FA5
:100F1000900D1124089597FB072E16F4009406D027
:100F200077FD08D031D007FC05D03EF4909581952F
:100F30009F4F0895709561957F4F0895052E97FBFB
:100F400016F400940FD057FD05D032D007FC02D024
:100F500046F408C050954095309521953F4F4F4F2E
:100F60005F4F089590958095709561957F4F8F4F55
:100F70009F4F08953FD0A59F900DB49F900DA49FC3
:100F8000800D911D11240895AA1BBB1B51E107C0C0
:100F9000AA1FBB1FA617B70710F0A61BB70B881F09
:100FA000991F5A95A9F780959095BC01CD01089598
:100FB000A1E21A2EAA1BBB1BFD010DC0AA1FBB1F5D
:100FC000EE1FFF1FA217B307E407F50720F0A21BCF
:100FD000B30BE40BF50B661F771F881F991F1A943C
:100FE00069F760957095809590959B01AC01BD0166
:100FF000CF010895A29FB001B39FC001A39F700DC0
:10100000811D1124911DB29F700D811D1124911D10
:101010000895CF93DF93CDB7DEB7AE014B5F5F4F3F
:10102000FA0161917191AF018091930690919406BC
:101030006FD0DF91CF9108950F931F93CF93DF93DC
:10104000E0919306F0919406238121FF1BC08C014F
:10105000D0E0C0E0F80181918F016091930670911A
:101060009406DB011896ED91FC911997882331F0D5
:101070000995892B79F3DFEFCFEFECCF8AE0099563
:10108000892B19F08FEF9FEF02C08D2F9C2FDF91DE
:10109000CF911F910F9108950F931F93CF93DF93DB
:1010A000CDB7DEB72E970FB6F894DEBF0FBECDBF1B
:1010B0000D891E898F89988D26E02C831A830983D8
:1010C00097FF02C080E090E801979E838D83AE0178
:1010D000455E5F4F698D7A8DCE01019619D04D81A5
:1010E0005E8157FD0AC02F813885421753070CF4E3
:1010F0009A01F801E20FF31F10822E960FB6F894B2
:10110000DEBF0FBECDBFDF91CF911F910F9108952C
:101110002F923F924F925F926F927F928F929F9207
:10112000AF92BF92CF92DF92EF92FF920F931F93F5
:10113000CF93DF93CDB7DEB72B970FB6F894DEBF12
:101140000FBECDBF6C017B018A01FC0117821682A4
:10115000838181FFBFC1CE0101963C01F6019381DD
:10116000F70193FD859193FF81917F01882309F415
:10117000ADC1853239F493FD859193FF81917F0153
:10118000853221F4B60190E0D6D1E8CF912C212C04
:10119000312CFFE1F315D8F08B3279F038F480323E
:1011A00079F08332A1F4232D20611DC08D3261F0CE
:1011B000803369F4232D216016C0832D8260382E80
:1011C000E32DE4603E2E2AC0F32DF8601DC037FCED
:1011D0002DC020ED280F2A3040F08E32B9F436FCB5
:1011E00075C1232D2064322E19C036FE06C08AE058
:1011F000989E200D1124922E11C0EAE02E9E200D03
:101200001124222EF32DF0623F2E08C08C3621F4DB
:10121000832D8068382E02C0883641F4F70193FD93
:10122000859193FF81917F018111B3CF982F9F7D8D
:101230009554933028F40C5F1F4F9FE399830DC0A2
:10124000833631F0833771F0833509F055C020C003
:10125000F801808189830E5F1F4F88248394912C2D
:10126000530112C02801F2E04F0E511CF801A0807A
:10127000B18036FE03C0692D70E002C06FEF7FEFD2
:10128000C5014ED14C018201F32DFF773F2E15C0D1
:10129000280122E0420E511CF801A080B18036FEE8
:1012A00003C0692D70E002C06FEF7FEFC5012DD143
:1012B0004C01F32DF0683F2E820133FC19C0822DC2
:1012C00090E088169906A0F4B60180E290E033D150
:1012D0002A94F5CFF50137FC859137FE81915F01A6
:1012E000B60190E028D121102A9421E0821A9108B9
:1012F0008114910479F7E1C0843611F0893639F50B
:10130000F80137FE07C060817181828193810C5F93
:101310001F4F08C060817181072E000C880B990B4C
:101320000E5F1F4FF32DFF763F2E97FF09C090955C
:101330008095709561957F4F8F4F9F4FF0683F2E3E
:101340002AE030E0A30133D1882E861844C08537C7
:1013500031F4232D2F7EB22E2AE030E025C0932DCC
:10136000997FB92E8F36C1F018F4883579F0AEC068
:10137000803719F0883721F0A9C0E92FE061BE2E2F
:10138000B4FE0DC0FB2DF460BF2E09C034FE0AC0B0
:10139000292F2660B22E06C028E030E005C020E1EB
:1013A00030E002C020E132E0F801B7FE07C0608102
:1013B0007181828193810C5F1F4F06C060817181B2
:1013C00080E090E00E5F1F4FA301F1D0882E8618B9
:1013D000FB2DFF773F2E36FE0DC0232D2E7FA22E34
:1013E000891458F434FE0BC032FC09C0832D8E7E64
:1013F000A82E05C0B82CA32C03C0B82C01C0B92C52
:10140000A4FE0FC0FE01E80DF11D8081803321F4A0
:101410009A2D997EA92E09C0A2FE06C0B394B3945A
:1014200004C08A2D867809F0B394A3FC10C0A0FEF6
:1014300006C0B21480F4280C922C9B180DC0B21474
:1014400058F4B60180E290E076D0B394F8CFB214AD
:1014500018F42B1802C0982C212CA4FE0FC0B60142
:1014600080E390E068D0A2FE16C0A1FC03C088E72C
:1014700090E002C088E590E0B6010CC08A2D867825
:1014800051F0A1FE02C08BE201C080E2A7FC8DE218
:10149000B60190E050D0891430F4B60180E390E0BA
:1014A0004AD09A94F8CF8A94F301E80DF11D808117
:1014B000B60190E040D08110F6CF222009F44ECE44
:1014C000B60180E290E037D02A94F7CFF60186810A
:1014D000978102C08FEF9FEF2B960FB6F894DEBF77
:1014E0000FBECDBFDF91CF911F910F91FF90EF9075
:1014F000DF90CF90BF90AF909F908F907F906F9034
:101500005F904F903F902F900895FC01059061509F
:1015100070400110D8F7809590958E0F9F1F089509
:10152000FC016150704001900110D8F780959095B2
:101530008E0F9F1F08950F931F93CF93DF93FB018F
:10154000238121FD03C08FEF9FEF2CC022FF16C027
:1015500046815781248135814217530744F4A08185
:10156000B1819D012F5F3F4F318320838C93268172
:1015700037812F5F3F4F3783268314C08B01EC01E7
:10158000FB010084F185E02D0995892BE1F6D80156
:1015900016968D919C911797019617969C938E9312
:1015A0001697CE01DF91CF911F910F910895FA0107
:1015B000AA27283051F1203181F1E8946F936E7F92
:1015C0006E5F7F4F8F4F9F4FAF4FB1E03ED0B4E083
:1015D0003CD0670F781F891F9A1FA11D680F791FC4
:1015E0008A1F911DA11D6A0F711D811D911DA11DD5
:1015F00020D009F468943F912AE0269F11243019E5
:10160000305D3193DEF6CF010895462F4770405D7F
:101610004193B3E00FD0C9F7F6CF462F4F70405D2E
:101620004A3318F0495D31FD4052419302D0A9F789
:10163000EACFB4E0A6959795879577956795BA9583
:10164000C9F700976105710508959B01AC010A2E49
:1016500006945795479537952795BA95C9F7620F20
:0E166000731F841F951FA01D0895F894FFCFDF
:10166E00FFFF010101010101010101010101010160
:10167E0001010000000200000000700700000000E1
:10168E0020303D2B3132332A3435362D3738392F31
:10169E00456E74657220457870722E2E2E20202095
:1016AE000025730052656164792D2D2D2D2D2D2D64
:1016BE002D2D2D2D0020203230253032642D253059
:1016CE0032642D2530326420202000202020202559
:1016DE003032643A253032643A253032642020208C
:1016EE002000434C4F434B0043414C43554C415417
:1016FE004F52000D0A3D3D3D204D617472697820B8
:10170E0043616C63756C61746F7220262044533193
:10171E003330372052544320426F6F746564203D3E
:10172E003D3D0D0020204D61747269782043616C3F
:10173E006320202000202053797374656D2052653C
:10174E006164792020005B44454255475D20466F19
:10175E007263696E6720445331333037204F7363A1
:10176E00696C6C61746F7220746F20537461727443
:10177E002E2E2E0D005B4D4F44455D205377697420
:10178E006368656420746F202573204D6F64650D4A
:10179E000A005B4B45595041445D2050726573738E
:1017AE0065643A2025630D0A005B43414C435D207E
:1017BE004576616C756174696E673A2025730D0A02
:1017CE0000416E733A20256C64005B43414C435DCF
:1017DE0020537563636573733A20256C640D0A009C
:1017EE005B43414C435D204572726F72210D0020A8
:1017FE0020202020202020202020202020202000FB
:10180E005B425554544F4E5D2030202D3E20426198
:10181E00636B73706163650D005B425554544F4E9C
:10182E005D2031202D3E202728270D005B42555488
:10183E00544F4E5D2032202D3E202729270D00418A
:10184E006E733A204572726F722020202020200085
:00000001FF
