S016000030315F4C45445F434F4E54524F4C2E73726563F9
S113000045C0000053C0000051C000004FC00000B4
S11300104DC000004BC0000049C0000047C00000B4
S113002045C0000043C0000041C000003FC00000C4
S11300303DC000003BC0000039C0000037C00000D4
S113004035C0000033C0000031C000002FC00000E4
S11300502DC000002BC0000029C0000027C00000F4
S113006025C0000023C0000021C000001FC0000004
S11300701DC000001BC0000019C0000017C0000014
S113008015C0000013C0000011C0000011241FBEE1
S1130090CFEFD0E1DEBFCDBF21E0A0E0B1E001C0F1
S11300A01D92A430B207E1F767D0C1C0A9CF81B3D4
S11300B0877881BB089520B3422F50E021E030E0DF
S11300C002C0220F331F6A95E2F72423352321153A
S11300D03105A1F0FC01E050FF4F408141110EC0F9
S11300E0EFE5FAEE3197F1F700C00000FC01E050B3
S11300F0FF4F21E0208380E090E00895232B99F4C2
S1130100FC01E050FF4F2081213081F4FC01E050DC
S1130110FF4F10828FE59AEE0197F1F700C00000BF
S113012081E090E0089580E090E0089580E090E020
S113013008958FEF8BBB08951BBA08958FEF8ABB88
S1130140FBCF08958FE08BBB089580EF8BBB0895A0
S11301508BB38A3A21F48BB386958BBB089585E5DE
S11301608BBB08958BB3853521F48BB3880F8BBB80
S113017008958AEA8BBB0895E1DF99DF00E010E07F
S1130180C0E0D0E063E070E080E090E094DF892B91
S1130190F1F02196CE0183709927892B11F4CCDFDD
S11301A016C0CE0183709078992324F401978C6F44
S11301B09F6F01968130910511F4BBDF08C0823036
S11301C0910511F4BFDF03C0039709F4BEDF64E0B7
S11301D070E081E090E06FDF892BF9F00F5F1F4F33
S11301E0C80183709927892B11F4A6DF16C0C801B2
S11301F083709078992324F401978C6F9F6F0196F4
S11302008130910511F4A4DF08C08230910511F406
S1130210A9DF03C0039709F48CDF66E070E083E094
S113022090E049DF892B09F4ADCF86DFA7CFF8949E
S1050230FFCFFA
S9030000FC
