S016000030315F4C45445F434F4E54524F4C2E73726563F9
S113000045C0000053C0000051C000004FC00000B4
S11300104DC000004BC0000049C0000047C00000B4
S113002045C0000043C0000041C000003FC00000C4
S11300303DC000003BC0000039C0000037C00000D4
S113004035C0000033C0000031C000002FC00000E4
S11300502DC000002BC0000029C0000027C00000F4
S113006025C0000023C0000021C000001FC0000004
S11300701DC000001BC0000019C0000017C0000014
S113008015C0000013C0000011C0000011241FBEE1
S1130090CFEFD0E1DEBFCDBF21E0A0E0B1E001C0F1
S11300A01D92A430B207E1F759D0B3C0A9CF81B3F0
S11300B0877881BB089520B3422F50E021E030E0DF
S11300C002C0220F331F6A95E2F72423352321153A
S11300D03105A1F0FC01E050FF4F408141110EC0F9
S11300E0EFE5FAEE3197F1F700C00000FC01E050B3
S11300F0FF4F21E0208380E090E00895232B99F4C2
S1130100FC01E050FF4F2081213081F4EFE5FAEE4D
S11301103197F1F700C00000FC01E050FF4F10825E
S113012081E090E0089580E090E0089580E090E020
S113013008958FEF8BBB08951BBA08958FEF8ABB88
S1130140FBCF08958FE08BBB089580EF8BBB0895A0
S11301508AEA8BBB089585E58BBB0895EFDFA7DFA3
S113016000E010E0C0E0D0E063E070E080E090E008
S1130170A2DF892B09F02196CE0183709927892B60
S113018011F4DADF16C0CE0183709078992324F439
S113019001978C6F9F6F01968130910511F4C9DF2F
S11301A008C08230910511F4CDDF03C0039709F430
S11301B0CCDF64E070E081E090E07DDF892B11F01A
S11301C00F5F1F4FC80183709927892B11F4B4DF87
S11301D016C0C80183709078992324F401978C6F1A
S11301E09F6F01968130910511F4B2DF08C082300F
S11301F0910511F4B0DF03C0039709F49ADF66E0B8
S113020070E083E090E057DF892B09F4ADCF94DFF1
S1090210A7CFF894FFCF14
S9030000FC
