S018000073656C665F64726976696E675F6361722E737265637B
S11300007EC000009AC0000098C0000096C00000A6
S113001094C00000F7C4000030C5000069C50000AA
S11300208CC000008AC0000088C0000086C00000A8
S113003084C0000082C0000080C000007EC00000B8
S11300404BC400007AC000009CC0000076C00000D1
S113005074C0000072C0000070C000006EC00000D8
S11300606CC000006AC0000068C0000066C00000E8
S113007064C0000062C0000060C000005EC00000F8
S11300805CC000005AC0000058C000007602810223
S11300908C02910298029F02A602E902F702F7027B
S11300A0F702E502F702F702F702F702F702ED02A0
S11300B0F702F702F702F702F702F102F502F7027C
S11300C0F702F702F702F702F702F702F702F70264
S11300D0F702F702F702F702F702E902F702F70262
S11300E0F702E502F702F702F702F702F702ED0260
S11300F0F702F702F702F702F702F102F502112400
S11301001FBECFEFD0E1DEBFCDBF11E0A0E0B1E074
S1130110E8E5F2E100E00BBF02C007900D92A63DB6
S1130120B107D9F721E0A6EDB1E001C01D92AD3FC2
S1130130B207E1F789D10C942A0962CF109290009A
S113014087E689B98AB188698AB9E5E9F0E08081EE
S11301508660808380E091E09093FA018093F901B6
S113016008955D9BFECF8CB90895CF93C82F8A3034
S113017011F48DE0F6DF8C2FF4DF80E090E0CF9176
S113018008951F920F920FB60F9211240BB60F927F
S11301902F933F934F935F936F937F938F939F938B
S11301A0AF93BF93EF93FF938CB18093D70180916A
S11301B0D701D7DF81E08093D601FF91EF91BF9102
S11301C0AF919F918F917F916F915F914F913F91EB
S11301D02F910F900BBE0F900FBE0F901F9018958C
S11301E084B38F7784BB85B38F7785BB08952091C3
S11301F06300422F50E021E030E002C0220F331FA1
S11302006A95E2F7242335232115310519F1FC0100
S1130210E852FE4F408141111DC04091ED015091C3
S1130220EE016091EF017091F0014F3051056105CD
S11302307105A0F11092ED011092EE011092EF0100
S11302401092F001FC01E852FE4F21E0208380E08F
S113025090E00895232B29F5FC01E852FE4F2081FC
S1130260213011F54091ED015091EE016091EF01C3
S11302707091F0014F30510561057105C0F0109285
S1130280ED011092EE011092EF011092F001FC01C9
S1130290E852FE4F108281E090E0089580E090E003
S11302A0089580E090E0089580E090E0089580E073
S11302B090E008958FEF84BB85BB8AB3806F8ABBBF
S11302C08BB38F708BBB87B38F6087BB88B3807F02
S11302D088BB08958BB38F708BBB88B3807F88BB3A
S11302E0E091DC01F0E0E25FFE4F808185BB80910C
S11302F0DC01811104C08BB380618BBB29C08130C8
S113030021F48BB380628BBB23C0823021F48BB386
S113031080648BBB1DC0833021F48BB380688BBB9E
S113032017C0843021F488B3816088BB11C0853044
S113033021F488B3826088BB0BC0863021F488B373
S1130340846088BB05C0873019F488B3886088BB93
S11303508091DC018F5F8093DC01883010F0109273
S1130360DC010895CF93DF93D82FCB01BA012CE39E
S113037030E040E050E044D4C62FCA01B90124E67D
S113038030E040E050E03CD48DEC689F912D112486
S1130390969596959695E92FF0E0EA5EFE4F2081BA
S11303A0EEE0F1E02483990F292F220F220F920F00
S11303B0691BA62FB0E0AA5EBE4F9C919583C89F8F
S11303C0812D1124869586958695A82FB0E0AA5E86
S11303D0BE4F9C919683880F982F990F990F890F80
S11303E0C81BAC2FB0E0AA5EBE4F8C9187838FEF01
S11303F08083818382838383D230A1F028F4DD2338
S113040069F0D13039F01DC0D430A1F078F0D53086
S1130410A9F017C08EE880930E0113C082E980937F
S11304200E010FC083E880930F010BC087EC80930B
S1130430100107C08FEA8093110103C087E88093FD
S11304400E01DF91CF910895CF93DF93CDB7DEB73F
S11304502E970FB6F894DEBF0FBECDBFC7D2C7D15B
S113046029DFBEDE80D36ADE78942CD2E5E6F0E0A4
S11304708081877F808387E291E00FD4812C912C47
S11304805401412C512C320119861A861B861C8674
S11304901D821E821F82188619821A821B821C8268
S11304A0D12C10E01E861D8601C0D12E8091E5015D
S11304B09091E601A091E701B091E801892B8A2B84
S11304C08B2B09F448C01092E5011092E6011092BA
S11304D0E7011092E8012D85822F90E08730910585
S11304E008F038C0FC01EA5BFF4FACC34091DD016A
S11304F05091DE016091DF017091E001812F32DFC4
S113050029C04091DD015091DE016091DF017091BD
S1130510E001812F27DF1EC0B501A40185E022DFA1
S113052019C049815A816B817C8181E01BDF12C033
S11305304D815E816F81788582E014DF0BC049852F
S11305405A856B857C8583E00DDF04C0B301A2016D
S113055084E008DFBFDE8091E9019091EA01A09177
S1130560EB01B091EC01CC97A105B10580F010929C
S1130570E9011092EA011092EB011092EC018E85D0
S113058009D38E858F5F8E87833008F01E869D8504
S113059091112DC01092DD011092DE011092DF0145
S11305A01092E0018091D601813009F5E091D701E4
S11305B01092D6018E2F90E0FC01E254F109E2334F
S11305C0F105A8F4E35BFF4F3DC386E92BD111E0AD
S11305D00EC086E93BD112E00AC086E94BD113E094
S11305E006C086E95BD114E002C06CD110E064E07F
S11305F070E080E090E0FBDD019709F070C0AD850C
S1130600A11124C0E5E6F0E0808188608083109227
S1130610DD011092DE011092DF011092E00180E60C
S113062091E03BD3412C512C320119861A861B864A
S11306301C861D821E821F82188619821A821B82C2
S11306401C82D12C10E0B1E0BD8749C02D8521303A
S113065009F5E5E6F0E08081877F808333D18090DF
S1130660DD019090DE01A090DF01B090E001BF9227
S1130670AF929F928F9284E891E09F938F93FAD2E6
S11306800F900F900F900F900F900F9010E082E05A
S11306908D8725C09D859230B9F09330C1F0943098
S11306A0C9F09530D1F09630D1F40CD11092DD011F
S11306B01092DE011092DF011092E0018FEA91E0C6
S11306C0ECD210E01D860BC0A3E0AD8708C0B4E0F7
S11306D0BD8705C025E02D8702C086E08D879D85F6
S11306E0913009F07DC080E07DD27C0181E07AD236
S11306F08C0182E077D2015011090930110588F488
S11307001E141F0474F4AAE0EA16F10454F4181633
S113071019063CF48A30910524F486E997D012E056
S113072023C00930110558F48E159F0524F486E979
S1130730A1D013E019C086E9B1D014E015C0B1E02E
S1130740EB1AF10829E0E216F10420F486E9A6D0B8
S113075014E00AC00197099720F486E98BD013E0CE
S113076003C086E95FD011E01D1509F49FCE123055
S1130770B1F018F4113031F098CE1330E9F01430A0
S113078041F193CE89819A81AB81BC810196A11DEF
S1130790B11D89839A83AB83BC83D12E87CE8D818F
S11307A09E81AF81B8850196A11DB11D8D839E8365
S11307B0AF83B887D12E7ACE89859A85AB85BC85DF
S11307C00196A11DB11D89879A87AB87BC87D12E5D
S11307D06DCE9FEF491A590A690A790AD12E66CE5D
S11307E0AD85A23008F462CE6DD010E05FCEE1E6B4
S11307F0F0E080818F608083E2E6F0E08081807F9A
S1130800808387B3806687BB8FB5816A8FBD8EB5C1
S113081088608EBD8EB583608EBD1BBC1ABC19BCAE
S113082018BC0895E2E6F0E0908191609083908195
S11308309D7F908390819B7F90839081986090832B
S113084090E09BBD8ABD99BD88BD0895E2E6F0E0C5
S113085090819E7F90839081926090839081946038
S113086090839081977F908390E09BBD8ABD99BDD2
S113087088BD0895E2E6F0E090819E7F90839081A8
S11308809260908390819B7F908390819860908305
S113089090E09BBD8ABD99BD88BD0895E2E6F0E075
S11308A090819160908390819D7F908390819460EA
S11308B090839081977F908390E09BBD8ABD99BD82
S11308C088BD0895E2E6F0E08081807F80831BBCD0
S11308D01ABC19BC18BC08951F920F920FB60F9240
S11308E011242F938F939F93AF93BF9386E082BF7E
S11308F08091ED019091EE01A091EF01B091F00192
S11309000196A11DB11D8093ED019093EE01A0937A
S1130910EF01B093F0018091E1019091E201A09187
S1130920E301B091E4010196A11DB11D8093E101A1
S11309309093E201A093E301B093E4018091E90173
S11309409091EA01A091EB01B091EC010196A11DF7
S1130950B11D8093E9019093EA01A093EB01B09358
S1130960EC018091E5019091E601A091E701B0913D
S1130970E8010196A11DB11D8093E5019093E60164
S1130980A093E701B093E8018091E1019091E20125
S1130990A091E301B091E401883E9340A105B10523
S11309A0D8F01092E1011092E2011092E30110924A
S11309B0E4018091DD019091DE01A091DF01B0910D
S11309C0E0010196A11DB11D8093DD019093DE012C
S11309D0A093DF01B093E001BF91AF919F918F91FC
S11309E02F910F900FBE0F901F90189586E082BF35
S11309F083B7887F83BF83B7846083BF87B78160F1
S1130A0087BF08951F920F920FB60F9211242F9350
S1130A103F936F937F938F939F93AF93BF930C9B5D
S1130A2005C010928900109288001AC02091880095
S1130A30309189000024369527950794369527959B
S1130A400794322F202DAFE9B6E405D19295829513
S1130A508F7089279F7089279093F2018093F10109
S1130A60BF91AF919F918F917F916F913F912F9102
S1130A700F900FBE0F901F9018951F920F920FB6F4
S1130A800F9211242F933F936F937F938F939F9390
S1130A90AF93BF930D9B05C01092890010928800FC
S1130AA01AC020918800309189000024369527953A
S1130AB00794369527950794322F202DAFE9B6E495
S1130AC0CAD0929582958F7089279F7089279093B9
S1130AD0F4018093F301BF91AF919F918F917F9126
S1130AE06F913F912F910F900FBE0F901F9018950B
S1130AF01F920F920FB60F9211242F933F936F936F
S1130B007F938F939F93AF93BF930E9B05C01092D7
S1130B108900109288001AC02091880030918900C1
S1130B200024369527950794369527950794322FF8
S1130B30202DAFE9B6E48FD0929582958F708927E6
S1130B409F7089279093F6018093F501BF91AF912F
S1130B509F918F917F916F913F912F910F900FBE35
S1130B600F901F9018958AB387608ABB82B18F78E3
S1130B7082B98AB785618ABF8AB7857D8ABF109298
S1130B808B00EAE8F0E080818560808389B7806724
S1130B9089BF0895882331F0813031F0823031F0FB
S1130BA030E005C030E003C031E001C032E02BB3D7
S1130BB081E090E002C0880F991F3A95E2F7982FE0
S1130BC0909529232BBB2AE02A95F1F700C02BB37B
S1130BD0822B8BBB85E38A95F1F700008BB39823B6
S1130BE09BBB0895833048F4E82FF0E0EE0FFF1F1D
S1130BF0EF50FE4F80819181089580E090E0089548
S1130C00A1E21A2EAA1BBB1BFD010DC0AA1FBB1F0C
S1130C10EE1FFF1FA217B307E407F50720F0A21B7E
S1130C20B30BE40BF50B661F771F881F991F1A94EB
S1130C3069F760957095809590959B01AC01BD0115
S1130C40CF010895EE0FFF1F0024001C0BBE079078
S1130C50F691E02D0994A29FB001B39FC001A39F18
S1130C60700D811D1124911DB29F700D811D1124E1
S1130C70911D0895CF93DF93CDB7DEB7AE014B5FDF
S1130C805F4FFA0161917191AF018091F9019091E7
S1130C90FA0133D0DF91CF9108950F931F93CF932F
S1130CA0DF93E091F901F091FA01238121FF1BC048
S1130CB08C01D0E0C0E0F80181918F016091F901CD
S1130CC07091FA01DB011896ED91FC911997882334
S1130CD031F00995892B79F3DFEFCFEFECCF8AE080
S1130CE00995892B19F08FEF9FEF02C08D2F9C2F50
S1130CF0DF91CF911F910F9108952F923F924F92C0
S1130D005F926F927F928F929F92AF92BF92CF9297
S1130D10DF92EF92FF920F931F93CF93DF93CDB7A0
S1130D20DEB72B970FB6F894DEBF0FBECDBF6C01B4
S1130D307B018A01FC0117821682838181FFBFC176
S1130D40CE0101963C01F6019381F70193FD859153
S1130D5093FF81917F01882309F4ADC1853239F471
S1130D6093FD859193FF81917F01853221F4B60132
S1130D7090E0D6D1E8CF912C212C312CFFE1F31552
S1130D80D8F08B3279F038F4803279F08332A1F4E0
S1130D90232D20611DC08D3261F0803369F4232D31
S1130DA0216016C0832D8260382EE32DE4603E2E30
S1130DB02AC0F32DF8601DC037FC2DC020ED280F8C
S1130DC02A3040F08E32B9F436FC75C1232D2064EC
S1130DD0322E19C036FE06C08AE0989E200D1124DA
S1130DE0922E11C0EAE02E9E200D1124222EF32D06
S1130DF0F0623F2E08C08C3621F4832D8068382E93
S1130E0002C0883641F4F70193FD859193FF8191E7
S1130E107F018111B3CF982F9F7D9554933028F48F
S1130E200C5F1F4F9FE399830DC0833631F08337E6
S1130E3071F0833509F055C020C0F80180818983A1
S1130E400E5F1F4F88248394912C530112C02801F4
S1130E50F2E04F0E511CF801A080B18036FE03C0B1
S1130E60692D70E002C06FEF7FEFC5014ED14C01D8
S1130E708201F32DFF773F2E15C0280122E0420E98
S1130E80511CF801A080B18036FE03C0692D70E0CA
S1130E9002C06FEF7FEFC5012DD14C01F32DF06837
S1130EA03F2E820133FC19C0822D90E088169906EA
S1130EB0A0F4B60180E290E033D12A94F5CFF50195
S1130EC037FC859137FE81915F01B60190E028D10E
S1130ED021102A9421E0821A91088114910479F74F
S1130EE0E1C0843611F0893639F5F80137FE07C0C0
S1130EF060817181828193810C5F1F4F08C0608182
S1130F007181072E000C880B990B0E5F1F4FF32D78
S1130F10FF763F2E97FF09C0909580957095619557
S1130F207F4F8F4F9F4FF0683F2E2AE030E0A301A0
S1130F3033D1882E861844C0853731F4232D2F7E73
S1130F40B22E2AE030E025C0932D997FB92E8F363A
S1130F50C1F018F4883579F0AEC0803719F08837BD
S1130F6021F0A9C0E92FE061BE2EB4FE0DC0FB2D17
S1130F70F460BF2E09C034FE0AC0292F2660B22EA9
S1130F8006C028E030E005C020E130E002C020E1E6
S1130F9032E0F801B7FE07C06081718182819381DC
S1130FA00C5F1F4F06C06081718180E090E00E5F8E
S1130FB01F4FA301F1D0882E8618FB2DFF773F2EFB
S1130FC036FE0DC0232D2E7FA22E891458F434FE34
S1130FD00BC032FC09C0832D8E7EA82E05C0B82C10
S1130FE0A32C03C0B82C01C0B92CA4FE0FC0FE0171
S1130FF0E80DF11D8081803321F49A2D997EA92E6C
S113100009C0A2FE06C0B394B39404C08A2D8678A6
S113101009F0B394A3FC10C0A0FE06C0B21480F47F
S1131020280C922C9B180DC0B21458F4B60180E21F
S113103090E076D0B394F8CFB21418F42B1802C011
S1131040982C212CA4FE0FC0B60180E390E068D058
S1131050A2FE16C0A1FC03C088E790E002C088E5A8
S113106090E0B6010CC08A2D867851F0A1FE02C032
S11310708BE201C080E2A7FC8DE2B60190E050D083
S1131080891430F4B60180E390E04AD09A94F8CF02
S11310908A94F301E80DF11D8081B60190E040D0FF
S11310A08110F6CF222009F44ECEB60180E290E002
S11310B037D02A94F7CFF6018681978102C08FEF4B
S11310C09FEF2B960FB6F894DEBF0FBECDBFDF9116
S11310D0CF911F910F91FF90EF90DF90CF90BF9031
S11310E0AF909F908F907F906F905F904F903F90C4
S11310F02F900895FC010590615070400110D8F7BD
S1131100809590958E0F9F1F0895FC01615070404B
S113111001900110D8F7809590958E0F9F1F089528
S11311200F931F93CF93DF93FB01238121FD03C012
S11311308FEF9FEF2CC022FF16C046815781248178
S113114035814217530744F4A081B1819D012F5F7B
S11311503F4F318320838C93268137812F5F3F4F0C
S11311603783268314C08B01EC01FB010084F185D5
S1131170E02D0995892BE1F6D80116968D919C9165
S11311801797019617969C938E931697CE01DF912D
S1131190CF911F910F910895FA01AA27283051F198
S11311A0203181F1E8946F936E7F6E5F7F4F8F4F94
S11311B09F4FAF4FB1E03ED0B4E03CD0670F781FF3
S11311C0891F9A1FA11D680F791F8A1F911DA11DD8
S11311D06A0F711D811D911DA11D20D009F4689411
S11311E03F912AE0269F11243019305D3193DEF6B9
S11311F0CF010895462F4770405D4193B3E00FD06F
S1131200C9F7F6CF462F4F70405D4A3318F0495D59
S113121031FD4052419302D0A9F7EACFB4E0A6953C
S11312209795879577956795BA95C9F7009761055E
S1131230710508959B01AC010A2E069457954795B4
S113124037952795BA95C9F7620F731F841F951FA9
S10B1250A01D0895F894FFCFDE
S11312580000000200000000B50000000000FFFFCD
S1131268FFFFFFFFFFFFC0F9A4B0999282F88090B6
S1131278FF8E9283C7AF870A3D3D3D20537973742F
S1131288656D20426F6F74205375636365737320B3
S113129828372D53746570204D697373696F6E20F8
S11312A84D6F646520526561647929203D3D3D0098
S11312B80A3E3E3E2053574954434820544F204148
S11312C855544F4E4F4D4F5553204D4F4445203C98
S11312D83C3C0A000A3E3E3E204D495353494F4E7A
S11312E82046494E4953484544212054494D453ADE
S11312F820256C6420736563203C3C3C0A0A000A80
S11313083E3E3E20524553455420544F2052454DAD
S11313184F544520434F4E54524F4C204D4F444553
S1091328203C3C3C0A00DD
S9030000FC
