:1000000045C0000060C000005EC000005CC0000091
:100010005AC0000058C0000056C0000054C0000084
:1000200052C0000050C000004EC000004CC0000094
:100030004AC0000048C0000046C0000044C00000A4
:1000400016C2000040C000003EC000003CC00000DE
:100050003AC0000038C0000036C0000034C00000C4
:1000600032C0000030C000002EC000002CC00000D4
:100070002AC0000028C0000026C0000024C00000E4
:1000800022C0000020C000001EC0000011241FBEBE
:10009000CFEFD0E1DEBFCDBF11E0A0E0B1E0EEE2F6
:1000A000F5E000E00BBF02C007900D92AC30B10745
:1000B000D9F721E0ACE0B1E001C01D92AE31B2074A
:1000C000E1F709D232C29CCF80911A0190911B01B5
:1000D000A0911C01B0911D0184369105A105B105C7
:1000E00088F110921A0110921B0110921C011092BB
:1000F0001D0181E090E00090160102C0880F991F59
:100100000A94E2F78BBB809116019091170101963A
:1001100087709078992324F40197886F9F6F0196D8
:100120009093170180931601892B61F48091180137
:1001300090911901019666E070E0D0D19093190179
:1001400080931801089580911A0190911B01A0914C
:100150001C01B0911D0184369105A105B10588F1FE
:1001600010921A0110921B0110921C0110921D0195
:1001700080E890E00090140102C0959587950A945C
:10018000E2F78BBB80911401909115010196877065
:100190009078992324F40197886F9F6F019690932C
:1001A000150180931401892B61F4809118019091BD
:1001B0001901019666E070E091D190931901809346
:1001C0001801089580911A0190911B01A0911C01C2
:1001D000B0911D0184369105A105B105B8F18BB32D
:1001E0008F3F09F41BBA10921A0110921B01109252
:1001F0001C0110921D012BB381E090E000901201D0
:1002000002C0880F991F0A94E2F7822B8BBB809162
:10021000120190911301019687709078992324F42C
:100220000197886F9F6F019690931301809312013D
:10023000892B61F48091180190911901019666E073
:1002400070E04CD19093190180931801089580912A
:100250001A0190911B01A0911C01B0911D018436DF
:100260009105A105B105E8F18BB38F3F09F41BBAE5
:1002700010921A0110921B0110921C0110921D0184
:100280004BB3809110019091110127E030E0281BC1
:10029000390B81E090E002C0880F991F2A95E2F7A0
:1002A000842B8BBB80911001909111010196877076
:1002B0009078992324F40197886F9F6F019690930B
:1002C000110180931001892B61F4809118019091A4
:1002D0001901019666E070E001D1909319018093B5
:1002E0001801089580911A0190911B01A0911C01A1
:1002F000B0911D0184369105A105B10508F449C0EE
:1003000010921A0110921B0110921C0110921D01F3
:1003100080910E0190910F01892B09F41BBA4BB308
:1003200020910E0130910F0163E070E0621B730BAE
:1003300081E090E0FC0102C0EE0FFF1F6A95E2F73A
:100340002C5F3F4F02C0880F991F2A95E2F78E2B32
:10035000842B8BBB80910E0190910F0101968370CD
:100360009078992324F401978C6F9F6F0196909356
:100370000F0180930E01892B61F4809118019091F7
:100380001901019666E070E0A9D09093190180935D
:100390001801089580911A0190911B01A0911C01F0
:1003A000B0911D0184369105A105B10508F449C03D
:1003B00010921A0110921B0110921C0110921D0143
:1003C00080910C0190910D01892B11F48FEF8BBB63
:1003D0002BB360910C0170910D0147E050E0461B7A
:1003E000570B81E090E0FC0102C0EE0FFF1F4A9521
:1003F000E2F702C0880F991F6A95E2F78E2B80956D
:1004000082238BBB80910C0190910D01019683702A
:100410009078992324F401978C6F9F6F01969093A5
:100420000D0180930C01892B61F48091180190914A
:100430001901019666E070E051D090931901809304
:10044000180108958FEF8ABB1BBA08951BBA08954F
:10045000F9DFFCDFE0911801F0911901EE0FFF1FA9
:10046000E050FF4F0190F081E02D0995F3CF1F92EE
:100470000F920FB60F9211248F939F93AF93BF9358
:1004800086E082BF80911A0190911B01A0911C010E
:10049000B0911D010196A11DB11D80931A01909389
:1004A0001B01A0931C01B0931D01BF91AF919F91BF
:1004B0008F910F900FBE0F901F90189586E082BF0E
:1004C00083B7887F83BF83B7846083BF87B781602A
:1004D00087BF78940895F2DFBBDFFFCF97FB072E2D
:1004E00016F4009406D077FD08D00BD007FC05D099
:1004F0003EF4909581959F4F0895709561957F4F3B
:100500000895AA1BBB1B51E107C0AA1FBB1FA6175A
:10051000B70710F0A61BB70B881F991F5A95A9F7AC
:0E05200080959095BC01CD010895F894FFCF11
:0C052E006400A300E20027017201CA0172
:00000001FF
