S00F000030342E554152542E7372656347
S113000045C0000060C000005EC000005CC000008D
S11300105AC0000058C0000056C0000054C0000080
S113002052C0000050C000004EC000004CC0000090
S11300304AC0000048C0000046C0000044C00000A0
S1130040BBC1000040C00000EAC100003CC0000089
S11300503AC0000038C0000036C0000034C00000C0
S113006032C0000030C000002EC000002CC00000D0
S11300702AC0000028C0000026C0000024C00000E0
S113008022C0000020C000001EC0000011241FBEBA
S1130090CFEFD0E1DEBFCDBF11E0A0E0B1E0E0E101
S11300A0FDE000E00BBF02C007900D92AE38B1072F
S11300B0D9F724E0AEE8B1E001C01D92AC3CB20730
S11300C0E1F76ED123C69CCF80919C0190919D0154
S11300D0A0919E01B0919F0184369105A105B105BF
S11300E018F110929C0110929D0110929E011092A1
S11300F09F0181E090E00090980102C0880F991F51
S11301000A94E2F78BBB8091980190919901019632
S113011087709078992324F40197886F9F6F0196D4
S11301209093990180939801089580919C019091F6
S11301309D01A0919E01B0919F0184369105A10576
S1130140B10518F110929C0110929D0110929E012C
S113015010929F0180E890E00090960102C095956E
S113016087950A94E2F78BBB809196019091970151
S1130170019687709078992324F40197886F9F6F74
S113018001969093970180939601089580919C0124
S113019090919D01A0919E01B0919F01843691059B
S11301A0A105B10548F18BB38F3F09F41BBA109236
S11301B09C0110929D0110929E0110929F012BB3FD
S11301C081E090E00090940102C0880F991F0A9486
S11301D0E2F7822B8BBB809194019091950101965B
S11301E087709078992324F40197886F9F6F019604
S11301F09093950180939401089580919C0190912E
S11302009D01A0919E01B0919F0184369105A105A5
S1130210B10578F18BB38F3F09F41BBA10929C019E
S113022010929D0110929E0110929F014BB38091F8
S113023092019091930127E030E0281B390B81E073
S113024090E002C0880F991F2A95E2F7842B8BBB9C
S113025080919201909193010196877090789923EF
S113026024F40197886F9F6F019690939301809374
S11302709201089580919C0190919D01A0919E010D
S1130280B0919F0184369105A105B105D8F1109272
S11302909C0110929D0110929E0110929F018091E9
S11302A0900190919101892B09F41BBA4BB32091D1
S11302B090013091910163E070E0621B730B81E067
S11302C090E0FC0102C0EE0FFF1F6A95E2F72C5F7D
S11302D03F4F02C0880F991F2A95E2F78E2B842B7B
S11302E08BBB8091900190919101019683709078DD
S11302F0992324F401978C6F9F6F01969093910139
S113030080939001089580919C0190919D01A0910A
S11303109E01B0919F0184369105A105B105D8F1E4
S113032010929C0110929D0110929E0110929F01C7
S113033080918E0190918F01892B11F48FEF8BBBEB
S11303402BB360918E0170918F0147E050E0461B02
S1130350570B81E090E0FC0102C0EE0FFF1F4A95AD
S1130360E2F702C0880F991F6A95E2F78E2B8095F9
S113037082238BBB80918E0190918F0101968370B3
S11303809078992324F401978C6F9F6F0196909332
S11303908F0180938E0108958FEF8ABB1BBA089555
S11303A032D0DAD0F9DF8CE091E09093C9048093E5
S11303B0C8047894E0D0FECF1F920F920FB60F922C
S11303C011248F939F93AF93BF9386E082BF809154
S11303D09C0190919D01A0919E01B0919F01019675
S11303E0A11DB11D80939C0190939D01A0939E013A
S11303F0B0939F01BF91AF919F918F910F900FBECA
S11304000F901F90189586E082BF83B7887F83BFC3
S113041083B7866083BF87B7816087BF08951F92C3
S11304200F920FB60F9211240BB60F922F933F9396
S11304304F935F936F937F938F939F93AF93BF93E8
S1130440EF93FF93CF93DF931F92CDB7DEB78CB1B9
S1130450898389818A3019F089818D30C1F5809131
S1130460A4019091A50101962AE030E0B90159D187
S1130470FC018091A2019091A301B90152D1E81726
S1130480F90709F453C02091A4013091A50180918A
S1130490A0019091A10140E5429FF001439FF00D1E
S11304A01124EA55FE4FE80FF91F10821092A101A2
S11304B01092A0018091A4019091A50101966AE097
S11304C070E02FD19093A5018093A4012FC0809157
S11304D0A4019091A50101962AE030E0B90121D14F
S11304E0FC018091A2019091A301B9011AD1E817EE
S11304F0F907E1F06091A4017091A5018091A00138
S11305009091A1019C012F5F3F4F3093A101209353
S1130510A001498150E5569F9001579F300D112449
S11305202A553E4FF901E80FF91F40830F90DF91E0
S1130530CF91FF91EF91BF91AF919F918F917F9157
S11305406F915F914F913F912F910F900BBE0F9040
S11305500FBE0F901F901895109290008FEC89B9E0
S11305608BB182608BB98AB188698AB908955D9B21
S1130570FECF8CB90895CF932091A2013091A301AD
S11305808091A4019091A5012817390709F4BBC0F3
S11305902091A2013091A301C0E5C29FC001C39F75
S11305A0900D11248A559E4F9F938F938AE191E079
S11305B09F938F93EBD02091A2013091A301C29F0E
S11305C0C001C39F900D112441E150E06DE171E041
S11305D08A559E4FCDD00F900F900F900F90892B7E
S11305E029F410929B0110929A0181C02091A201DA
S11305F03091A30140E5429FC001439F900D112417
S113060041E150E06FE271E08A559E4FB1D0892BF1
S113061039F481E090E090939B0180939A0167C044
S11306202091A2013091A30140E5429FC001439F64
S1130630900D112446E150E062E471E08A559E4F2A
S113064097D0892B39F482E090E090939B018093BA
S11306509A014DC02091A2013091A30140E5429F2F
S1130660C001439F900D112447E150E069E571E01A
S11306708A559E4F7DD0892B39F483E090E0909386
S11306809B0180939A0133C02091A2013091A30170
S113069040E5429FC001439F900D11244DE050E07E
S11306A061E771E08A559E4F63D0892B39F484E069
S11306B090E090939B0180939A0119C02091A2012C
S11306C03091A30140E5429FC001439F900D112446
S11306D04EE050E06FE771E08A559E4F49D0892B78
S11306E031F485E090E090939B0180939A0180918E
S11306F0A2019091A30101966AE070E012D0909358
S1130700A3018093A201E0919A01F0919B01EE0F65
S1130710FF1FE050FF4F0190F081E02D0995CF912C
S1130720089597FB072E16F4009406D077FD08D0A1
S11307300BD007FC05D03EF4909581959F4F08950A
S1130740709561957F4F0895AA1BBB1B51E107C0AB
S1130750AA1FBB1FA617B70710F0A61BB70B881F4D
S1130760991F5A95A9F780959095BC01CD010895DC
S1130770FB01DC014150504030F08D910190801913
S113078019F40020B9F7881B990B0895CF93DF93D0
S1130790CDB7DEB7AE014B5F5F4FFA016191719146
S11307A0AF018091C8049091C90403D0DF91CF9127
S11307B008952F923F924F925F926F927F928F9201
S11307C09F92AF92BF92CF92DF92EF92FF920F93DC
S11307D01F93CF93DF93CDB7DEB72B970FB6F89463
S11307E0DEBF0FBECDBF6C017B018A01FC01178205
S11307F01682838181FFBFC1CE0101963C01F601BF
S11308009381F70193FD859193FF81917F01882363
S113081009F4ADC1853239F493FD859193FF81913B
S11308207F01853221F4B60190E0D6D1E8CF912C36
S1130830212C312CFFE1F315D8F08B3279F038F408
S1130840803279F08332A1F4232D20611DC08D32D2
S113085061F0803369F4232D216016C0832D8260FA
S1130860382EE32DE4603E2E2AC0F32DF8601DC01F
S113087037FC2DC020ED280F2A3040F08E32B9F419
S113088036FC75C1232D2064322E19C036FE06C0F5
S11308908AE0989E200D1124922E11C0EAE02E9E2B
S11308A0200D1124222EF32DF0623F2E08C08C3629
S11308B021F4832D8068382E02C0883641F4F70174
S11308C093FD859193FF81917F018111B3CF982F7F
S11308D09F7D9554933028F40C5F1F4F9FE39983B9
S11308E00DC0833631F0833771F0833509F055C07C
S11308F020C0F801808189830E5F1F4F8824839470
S1130900912C530112C02801F2E04F0E511CF80142
S1130910A080B18036FE03C0692D70E002C06FEF85
S11309207FEFC5014ED14C018201F32DFF773F2E9D
S113093015C0280122E0420E511CF801A080B180AC
S113094036FE03C0692D70E002C06FEF7FEFC50172
S11309502DD14C01F32DF0683F2E820133FC19C0D8
S1130960822D90E088169906A0F4B60180E290E00A
S113097033D12A94F5CFF50137FC859137FE819167
S11309805F01B60190E028D121102A9421E0821A57
S113099091088114910479F7E1C0843611F0893605
S11309A039F5F80137FE07C0608171818281938136
S11309B00C5F1F4F08C060817181072E000C880BEB
S11309C0990B0E5F1F4FF32DFF763F2E97FF09C043
S11309D090958095709561957F4F8F4F9F4FF068EC
S11309E03F2E2AE030E0A30133D1882E861844C07C
S11309F0853731F4232D2F7EB22E2AE030E025C036
S1130A00932D997FB92E8F36C1F018F4883579F07B
S1130A10AEC0803719F0883721F0A9C0E92FE06112
S1130A20BE2EB4FE0DC0FB2DF460BF2E09C034FEF3
S1130A300AC0292F2660B22E06C028E030E005C087
S1130A4020E130E002C020E132E0F801B7FE07C047
S1130A5060817181828193810C5F1F4F06C0608128
S1130A60718180E090E00E5F1F4FA301F1D0882ECA
S1130A708618FB2DFF773F2E36FE0DC0232D2E7FCB
S1130A80A22E891458F434FE0BC032FC09C0832D05
S1130A908E7EA82E05C0B82CA32C03C0B82C01C090
S1130AA0B92CA4FE0FC0FE01E80DF11D8081803336
S1130AB021F49A2D997EA92E09C0A2FE06C0B394F2
S1130AC0B39404C08A2D867809F0B394A3FC10C0B3
S1130AD0A0FE06C0B21480F4280C922C9B180DC002
S1130AE0B21458F4B60180E290E076D0B394F8CF13
S1130AF0B21418F42B1802C0982C212CA4FE0FC099
S1130B00B60180E390E068D0A2FE16C0A1FC03C049
S1130B1088E790E002C088E590E0B6010CC08A2D19
S1130B20867851F0A1FE02C08BE201C080E2A7FCEE
S1130B308DE2B60190E050D0891430F4B60180E320
S1130B4090E04AD09A94F8CF8A94F301E80DF11D0D
S1130B508081B60190E040D08110F6CF222009F4C4
S1130B604ECEB60180E290E037D02A94F7CFF6015A
S1130B708681978102C08FEF9FEF2B960FB6F89472
S1130B80DEBF0FBECDBFDF91CF911F910F91FF90BC
S1130B90EF90DF90CF90BF90AF909F908F907F9019
S1130BA06F905F904F903F902F900895FC010590B7
S1130BB0615070400110D8F7809590958E0F9F1F5B
S1130BC00895FC016150704001900110D8F78095A0
S1130BD090958E0F9F1F08950F931F93CF93DF93CC
S1130BE0FB01238121FD03C08FEF9FEF2CC022FF67
S1130BF016C046815781248135814217530744F436
S1130C00A081B1819D012F5F3F4F318320838C935D
S1130C10268137812F5F3F4F3783268314C08B0192
S1130C20EC01FB010084F185E02D0995892BE1F6A7
S1130C30D80116968D919C911797019617969C93BF
S1130C408E931697CE01DF91CF911F910F91089546
S1130C50FA01AA27283051F1203181F1E8946F93E9
S1130C606E7F6E5F7F4F8F4F9F4FAF4FB1E03ED08F
S1130C70B4E03CD0670F781F891F9A1FA11D680F2D
S1130C80791F8A1F911DA11D6A0F711D811D911D60
S1130C90A11D20D009F468943F912AE0269F1124D5
S1130CA03019305D3193DEF6CF010895462F477039
S1130CB0405D4193B3E00FD0C9F7F6CF462F4F7094
S1130CC0405D4A3318F0495D31FD4052419302D0F2
S1130CD0A9F7EACFB4E0A695979587957795679598
S1130CE0BA95C9F700976105710508959B01AC0198
S1130CF00A2E06945795479537952795BA95C9F7BF
S1130D00620F731F841F951FA01D0895F894FFCFD1
S1130D1064009500C600FD003A0183010000000252
S1130D2000000000B702000000002573006C656439
S1130D305F73686966745F6C6566745F6F6E006C80
S1130D4065645F73686966745F72696768745F6F0E
S1130D506E006C65645F73686966745F6C65667465
S1130D605F6B6565705F6F6E006C65645F73686967
S1130D7066745F72696768745F6B6565705F6F6ED8
S1130D80006C65645F666C6F7765725F6F6E006C94
S1110D9065645F666C6F7765725F6F66660000
S9030000FC
