S0170000486F6D65776F726B5F303631355F322E7372656305
S113000045C0000060C000005EC000005CC000008D
S11300105AC0000058C0000056C0000054C0000080
S113002052C0000050C000004AC300004CC0000091
S11300304AC0000048C0000046C0000044C00000A0
S113004081C2000040C000003EC000003CC000006F
S11300503AC0000038C0000036C0000034C00000C0
S113006032C0000030C000002EC000002CC00000D0
S11300702AC0000028C0000026C0000024C00000E0
S113008022C0000020C000001EC0000011241FBEBA
S1130090CFEFD0E1DEBFCDBF11E0A0E0B1E0EEE3F1
S11300A0F8E000E00BBF02C007900D92AE31B1073B
S11300B0D9F721E0AEE1B1E001C01D92A234B2074C
S11300C0E1F70BD3BAC39CCF81B3877881BB089582
S11300D020B3422F50E021E030E002C0220F331F52
S11300E06A95E2F7242335232115310519F1FC0122
S11300F0E25EFE4F408141111DC0409128015091A4
S1130100290160912A0170912B014F30510561053D
S11301107105A0F1109228011092290110922A0170
S113012010922B01FC01E25EFE4F21E0208380E06F
S113013090E00895232B29F5FC01E25EFE4F208117
S1130140213011F5409128015091290160912A0133
S113015070912B014F30510561057105C0F010926B
S113016028011092290110922A0110922B01FC01FE
S1130170E25EFE4F108281E090E0089580E090E01E
S1130180089580E090E0089580E090E0089580E094
S113019090E008959FEF94BB87B3806F87BB95BBB6
S11301A0089580913101813029F495B3809116012D
S11301B0892385BB08958091260190912701813080
S11301C0910501F11CF4892B41F070C08230910536
S11301D0B1F1039709F44FC069C080E888BB60910E
S11301E032017091330180913401909135012AE0FC
S11301F030E040E050E0F1D2FB01E45FFE4F80814B
S113020085BB54C080E488BB609132017091330196
S113021080913401909135012AE030E040E050E0D3
S1130220DCD2CA01B90126E030E040E050E0D5D28A
S1130230FB01E45FFE4F808185BBB3DF37C080E202
S113024088BB6091320170913301809134019091A7
S113025035012CE330E040E050E0BFD2CA01B901DF
S11302602AE030E040E050E0B8D2FB01E45FFE4F0A
S1130270808185BB1BC080E188BB60913201709195
S11302803301809134019091350128E532E040E05A
S113029050E0A3D2CA01B90126E030E040E050E0CA
S11302A09CD2FB01E45FFE4F808185BB80912601D7
S11302B090912701019683709078992324F40197F3
S11302C08C6F9F6F01969093270180932601089568
S11302D06091320170913301809134019091350124
S11302E026E030E040E050E078D2209124013091C3
S11302F025012130310501F11CF4232B41F047C0C5
S113030022303105A9F123303105D1F140C080E814
S113031088BB6091320170913301809134019091D6
S113032035012AE030E040E050E057D2FB01E45FC1
S1130330FE4F808185BB2BC080E488BB6091320175
S11303407091330180913401909135012AE030E0BD
S113035040E050E042D2CA01B90126E030E040E07A
S113036050E03BD2FB01E45FFE4F808185BB0FC0B0
S113037020E228BBFB01EA5FFE4F808185BB07C0FA
S113038020E128BBFB01E050FF4F808185BB8091B9
S1130390240190912501019683709078992324F487
S11303A001978C6F9F6F0196909325018093240190
S11303B00895CF92DF92EF92FF9264E070E081E0C3
S11303C090E086DE892B39F090912C0181E0911127
S11303D080E080932C0165E070E082E090E078DEBC
S11303E0892BE1F010923A0110923B0110923C01EA
S11303F010923D011092360110923701109238018B
S11304001092390190912C0181E0911180E0809348
S11304102C0180EF88BB80910C0185BB8091220167
S1130420909123018130910559F11CF4892B49F0F5
S113043073C08230910509F43FC0039709F451C099
S11304406BC080E888BB60913A0170913B01809158
S11304503C0190913D010F2EFAE0CF2ED12CE12CDE
S1130460F12CF02DA701960196D1CA01B901A7017B
S1130470960191D1FB01E45FFE4F808185BB4CC0A6
S113048080E488BB60913A0170913B0180913C010A
S113049090913D0124E630E040E050E07CD1CA0177
S11304A0B9012AE030E040E050E075D1FB01E45F9F
S11304B0FE4F808185BB30C080E288BB60913601ED
S11304C07091370180913801909139012AE030E030
S11304D040E050E060D1FB01E45FFE4F808185BBCA
S11304E01BC080E188BB6091360170913701809117
S11304F03801909139012AE030E040E050E04BD1DE
S1130500CA01B90126E030E040E050E044D1FB01EB
S1130510E45FFE4F808185BB80912201909123018D
S1130520019683709078992324F401978C6F9F6FC0
S113053001969093230180932201FF90EF90DF9026
S1130540CF9008951F920F920FB60F9211242F93FC
S11305508F939F93AF93BF9386E082BF80913E01B8
S113056090913F01A0914001B09141010196A11DDC
S1130570B11D80933E0190933F01A0934001B0933D
S1130580410180912D0190912E01A0912F01B091F4
S113059030010196A11DB11D80932D0190932E0170
S11305A0A0932F01B09330018091280190912901EB
S11305B0A0912A01B0912B010196A11DB11D809338
S11305C0280190932901A0932A01B0932B018091D3
S11305D03E0190913F01A0914001B0914101883EBC
S11305E09340A105B10510F110923E0110923F0114
S11305F01092400110924101809132019091330197
S1130600A0913401B09135010196A11DB11D8093D3
S1130610320190933301A0933401B093350190914A
S1130620310181E0911180E08093310180912C01AE
S11306308823D9F180913A0190913B01A0913C012A
S1130640B0913D010196A11DB11D80933A01909393
S11306503B01A0933C01B0933D0180913A019091FC
S11306603B01A0913C01B0913D01883E9340A1051E
S1130670B105D8F010923A0110923B0110923C015E
S113068010923D018091360190913701A09138017B
S1130690B09139010196A11DB11D8093360190934B
S11306A03701A0933801B0933901BF91AF919F9165
S11306B08F912F910F900FBE0F901F9018951F923E
S11306C00F920FB60F9211248F9386E084BD8F9101
S11306D00F900FBE0F901F90189530D03CD0F4DCD3
S11306E059DDC0E0D0E040912D0150912E01609180
S11306F02F0170913001452B462B472BA1F310920B
S11307002D0110922E0110922F011092300163E0FE
S113071070E080E090E0DCDC892B31F0CE010196C2
S113072063E070E025D0EC01FE01EE0FFF1FE95EEF
S1130730FE4F0190F081E02D0995D5CF86E082BF70
S113074083B7887F83BF83B7846083BF87B78160A3
S113075087BF7894089586E084BD85B5887F85BD7C
S113076085B5846085BD87B7806487BF7894089514
S113077097FB072E16F4009406D077FD08D049D0D5
S113078007FC05D03EF4909581959F4F0895709590
S113079061957F4F0895A1E21A2EAA1BBB1BFD0190
S11307A00DC0AA1FBB1FEE1FFF1FA217B307E4074C
S11307B0F50720F0A21BB30BE40BF50B661F771FA4
S11307C0881F991F1A9469F7609570958095909584
S11307D09B01AC01BD01CF010895052E97FB16F4D2
S11307E000940FD057FD05D0D6DF07FC02D046F4A5
S11307F008C050954095309521953F4F4F4F5F4F1E
S1130800089590958095709561957F4F8F4F9F4F78
S11308100895AA1BBB1B51E107C0AA1FBB1FA61743
S1130820B70710F0A61BB70B881F991F5A95A9F795
S111083080959095BC01CD010895F894FFCFFA
S113083EFFFECFF7FFFFFEFFFFFFF7F9C0F9A4B0ED
S111084E999282D880987FDB006801D901005E
S9030000FC
