S012000044485431315F746573742E73726563B1
S113000045C0000060C000005EC000005CC000008D
S11300105AC0000058C0000056C0000054C0000080
S113002052C0000050C000004EC000004CC0000090
S11300304AC0000048C0000046C0000044C00000A0
S113004042C0000040C000003EC000003CC00000B0
S11300503AC0000038C0000036C0000034C00000C0
S113006032C0000030C000002EC000002CC00000D0
S11300702AC0000028C0000026C0000024C00000E0
S113008022C0000020C000001EC0000011241FBEBA
S1130090CFEFD0E1DEBFCDBF11E0A0E0B1E0E8E0FA
S11300A0FCE000E00BBF02C007900D92A435B1073D
S11300B0D9F721E0A4E5B1E001C01D92AE35B20745
S11300C0E1F7D7D09FC59CCFE4E6F0E08081816062
S11300D08083E5E6F0E080818E7F80832FEF89EFD7
S11300E090E0215080409040E1F700C00000808102
S11300F08160808320EA2A95F1F70895E4E6F0E030
S113010080818E7F8083E5E6F0E08081816080835A
S113011080E090E00BC09C012F5F3F4F893C91052C
S113012080F585E08A95F1F70000C901209163000C
S113013020FDF1CF80E090E00BC09C012F5F3F4F8A
S1130140893C910508F585E08A95F1F70000C9011D
S11301502091630020FFF1CF80E090E00BC09C0170
S11301602F5F3F4F893C910590F485E08A95F1F724
S11301700000C9012091630020FDF1CF81E090E0EF
S1130180089580E090E0089580E090E0089580E094
S113019090E0089560E070E080E02CC090916300EE
S11301A090FFFCCF95ED9A95F1F7000090916300D4
S11301B090FF1EC047E050E0461B570B21E030E0A3
S11301C002C0220F331F4A95E2F7822B20E030E071
S11301D00BC0A9014F5F5F4F2536310548F495E008
S11301E09A95F1F700009A019091630090FDF1CF88
S11301F06F5F7F4F683071058CF20895CF92DF9264
S1130200EF92FF920F931F93CF93DF938C01EB0137
S11302105BDF74DF009721F1BDDFE82EBBDFF82E32
S1130220B9DFD82EB7DFC82EB5DF2F2D30E02E0D65
S1130230311D2D0D311D2C0D311D90E0281739076E
S113024051F4E11002C0DD2049F0F801E082D882C7
S113025081E090E005C080E090E002C080E090E0A2
S1130260DF91CF911F910F91FF90EF90DF90CF908E
S11302700895CF93DF9300D0CDB7DEB719821A82E9
S113028036D086E091E09FD0BE016E5F7F4FCE01F5
S11302900196B4DF892B91F089811F928F938A8113
S11302A01F928F9386E291E09F938F9379D00F9062
S11302B00F900F900F900F900F9003C08CE491E07B
S11302C082D02FEF8DE399E4215080409040E1F7F4
S11302D000C00000D9CF8A3021F45D9BFECF9DE0A1
S11302E09CB95D9BFECF8CB980E090E0089510929C
S11302F0900087E689B988E18AB986E08093950001
S113030060E070E08BE691E001C008950F931F93C5
S1130310CF93DF93009731F46115710519F480E0F0
S113032090E039C08B01EC016EE070E081E090E078
S113033077D2FC01892B99F380E883830115110599
S113034071F01387028781E883838091540190912F
S11303505501892B21F4F0935501E0935401209722
S1130360C9F0D187C08783818260838380915601DD
S113037090915701892B71F4F0935701E093560142
S11303808091580190915901892B21F4F0935901DE
S1130390E0935801CF01DF91CF911F910F91089500
S11303A0CF93DF93CDB7DEB7AE014B5F5F4FFA015A
S11303B061917191AF01809156019091570133D0B1
S11303C0DF91CF9108950F931F93CF93DF93E09123
S11303D05601F0915701238121FF1BC08C01D0E00D
S11303E0C0E0F80181918F0160915601709157012D
S11303F0DB011896ED91FC911997882331F009954A
S1130400892B79F3DFEFCFEFECCF8AE00995892BC5
S113041019F08FEF9FEF02C08D2F9C2FDF91CF91AA
S11304201F910F9108952F923F924F925F926F9276
S11304307F928F929F92AF92BF92CF92DF92EF9270
S1130440FF920F931F93CF93DF93CDB7DEB72B9714
S11304500FB6F894DEBF0FBECDBF6C017B018A01DD
S1130460FC0117821682838181FFBFC1CE010196F0
S11304703C01F6019381F70193FD859193FF8191EE
S11304807F01882309F4ADC1853239F493FD859148
S113049093FF81917F01853221F4B60190E018D356
S11304A0E8CF912C212C312CFFE1F315D8F08B32BD
S11304B079F038F4803279F08332A1F4232D20616D
S11304C01DC08D3261F0803369F4232D216016C084
S11304D0832D8260382EE32DE4603E2E2AC0F32D56
S11304E0F8601DC037FC2DC020ED280F2A3040F0E5
S11304F08E32B9F436FC75C1232D2064322E19C016
S113050036FE06C08AE0989E200D1124922E11C05A
S1130510EAE02E9E200D1124222EF32DF0623F2EB0
S113052008C08C3621F4832D8068382E02C08836AA
S113053041F4F70193FD859193FF81917F0181112E
S1130540B3CF982F9F7D9554933028F40C5F1F4FA1
S11305509FE399830DC0833631F0833771F083357F
S113056009F055C020C0F801808189830E5F1F4FB8
S113057088248394912C530112C02801F2E04F0E79
S1130580511CF801A080B18036FE03C0692D70E0D3
S113059002C06FEF7FEFC50190D24C018201F32DB1
S11305A0FF773F2E15C0280122E0420E511CF801AE
S11305B0A080B18036FE03C0692D70E002C06FEFE9
S11305C07FEFC50168D24C01F32DF0683F2E820104
S11305D033FC19C0822D90E088169906A0F4B60168
S11305E080E290E075D22A94F5CFF50137FC85912D
S11305F037FE81915F01B60190E06AD221102A94FE
S113060021E0821A91088114910479F7E1C08436BB
S113061011F0893639F5F80137FE07C06081718120
S1130620828193810C5F1F4F08C060817181072E06
S1130630000C880B990B0E5F1F4FF32DFF763F2E96
S113064097FF09C090958095709561957F4F8F4F66
S11306509F4FF0683F2E2AE030E0A30175D2882E28
S1130660861844C0853731F4232D2F7EB22E2AE01C
S113067030E025C0932D997FB92E8F36C1F018F440
S1130680883579F0AEC0803719F0883721F0A9C0D9
S1130690E92FE061BE2EB4FE0DC0FB2DF460BF2E29
S11306A009C034FE0AC0292F2660B22E06C028E0F5
S11306B030E005C020E130E002C020E132E0F80182
S11306C0B7FE07C060817181828193810C5F1F4FE7
S11306D006C06081718180E090E00E5F1F4FA3012E
S11306E033D2882E8618FB2DFF773F2E36FE0DC0A1
S11306F0232D2E7FA22E891458F434FE0BC032FC15
S113070009C0832D8E7EA82E05C0B82CA32C03C04F
S1130710B82C01C0B92CA4FE0FC0FE01E80DF11DD8
S11307208081803321F49A2D997EA92E09C0A2FEDE
S113073006C0B394B39404C08A2D867809F0B394A8
S1130740A3FC10C0A0FE06C0B21480F4280C922CA6
S11307509B180DC0B21458F4B60180E290E0B8D1F1
S1130760B394F8CFB21418F42B1802C0982C212C8F
S1130770A4FE0FC0B60180E390E0AAD1A2FE16C089
S1130780A1FC03C088E790E002C088E590E0B601D0
S11307900CC08A2D867851F0A1FE02C08BE201C004
S11307A080E2A7FC8DE2B60190E092D1891430F486
S11307B0B60180E390E08CD19A94F8CF8A94F30147
S11307C0E80DF11D8081B60190E082D18110F6CF51
S11307D0222009F44ECEB60180E290E079D12A9429
S11307E0F7CFF6018681978102C08FEF9FEF2B969A
S11307F00FB6F894DEBF0FBECDBFDF91CF911F912E
S11308000F91FF90EF90DF90CF90BF90AF909F90AB
S11308108F907F906F905F904F903F902F900895AE
S11308200F931F93CF93DF93869F8001879F100DB3
S1130830969F100D1124C8010DD0EC01009721F0F2
S1130840A80160E070E032D1CE01DF91CF911F9119
S11308500F9108950F931F93CF93DF9382309105E7
S113086010F482E090E0E0915C01F0915D0120E001
S113087030E0A0E0B0E0309719F14081518102816D
S1130880138148175907C8F08417950769F410971E
S113089031F012960C93129713961C9327C0009371
S11308A05C0110935D0122C02115310519F0421736
S11308B0530718F49A01BD01EF01DF01F801DBCF02
S11308C021153105F9F0281B390B2430310580F44A
S11308D08A819B816115710521F0FB0193838283D9
S11308E004C090935D0180935C01FE01329644C084
S11308F0FE01E20FF31F8193919322503109398352
S113090028833AC020915A0130915B01232B41F492
S1130910209102013091030130935B0120935A012D
S113092020910001309101012115310541F42DB7C9
S11309303EB74091040150910501241B350BE09111
S11309405A01F0915B01E217F307A0F42E1B3F0B51
S11309502817390778F0AC014E5F5F4F241735072D
S113096048F04E0F5F1F50935B0140935A018193EF
S1130970919302C0E0E0F0E0CF01DF91CF911F91AD
S11309800F910895CF93DF93009709F481C0FC0180
S1130990329713821282A0915C01B0915D0110978D
S11309A081F420813181820F931F20915A0130916B
S11309B05B012817390751F5F0935B01E0935A0165
S11309C067C0ED0120E030E0CE17DF0740F44A8134
S11309D05B819E0141155105F1F0EA01F5CFD38306
S11309E0C28340815181840F951FC817D90759F4D8
S11309F088819981840F951F0296918380838A81CF
S1130A009B81938382832115310529F4F0935D0141
S1130A10E0935C013DC0E901FB83EA83499159916C
S1130A20C40FD51FEC17FD0761F480819181840FF9
S1130A30951F0296E90199838883828193819B8320
S1130A408A83E0E0F0E012968D919C9113970097D1
S1130A5019F0FD01DC01F7CF8D919C9111979D0157
S1130A602E5F3F4F820F931F20915A0130915B01FB
S1130A702817390769F4309729F410925D01109210
S1130A805C0102C013821282B0935B01A0935A01ED
S1130A90DF91CF910895FC010590615070400110E1
S1130AA0D8F7809590958E0F9F1F0895DC0101C0A3
S1130AB06D9341505040E0F70895FC01615070403F
S1130AC001900110D8F7809590958E0F9F1F08957F
S1130AD00F931F93CF93DF93FB01238121FD03C069
S1130AE08FEF9FEF2CC022FF16C0468157812481CF
S1130AF035814217530744F4A081B1819D012F5FD2
S1130B003F4F318320838C93268137812F5F3F4F62
S1130B103783268314C08B01EC01FB010084F1852B
S1130B20E02D0995892BE1F6D80116968D919C91BB
S1130B301797019617969C938E931697CE01DF9183
S1130B40CF911F910F910895FA01AA27283051F1EE
S1130B50203181F1E8946F936E7F6E5F7F4F8F4FEA
S1130B609F4FAF4FB1E03ED0B4E03CD0670F781F49
S1130B70891F9A1FA11D680F791F8A1F911DA11D2E
S1130B806A0F711D811D911DA11D20D009F4689467
S1130B903F912AE0269F11243019305D3193DEF60F
S1130BA0CF010895462F4770405D4193B3E00FD0C5
S1130BB0C9F7F6CF462F4F70405D4A3318F0495DB0
S1130BC031FD4052419302D0A9F7EACFB4E0A69593
S1130BD09795879577956795BA95C9F700976105B5
S1130BE0710508959B01AC010A2E0694579547950B
S1130BF037952795BA95C9F7620F731F841F951F00
S10B0C00A01D0895F894FFCF34
S1130C0800005E0120002D2D2D2041546D65676183
S1130C183132382073797374656D2073746172741A
S1130C28202D2D2D0D002074656D7065726174750D
S1130C3872653A20256420432C2068756D696469BF
S1130C4874793A2025642025250D0A006572726F8F
S1070C58720D000015
S9030000FC
