:1000000053C000006EC000006CC000006AC0000059
:1000100068C0000066C0000064C0000062C000004C
:1000200060C000005EC000005CC000005AC000005C
:1000300058C0000056C0000054C0000052C000006C
:100040004FC200004EC000004CC000004AC000007B
:1000500048C0000046C0000044C0000042C000008C
:1000600040C000003EC000003CC000003AC000009C
:1000700038C0000036C0000034C0000032C00000AC
:1000800030C000002EC000002CC00000E502F302CA
:1000900004031103190348037703D803DE03EA03BB
:1000A000F60302040504080411241FBECFEFD0E1BB
:1000B000DEBFCDBF11E0A0E0B1E0E4EFF8E000E08A
:1000C0000BBF02C007900D92A831B107D9F721E00C
:1000D000A8E1B1E001C01D92AF32B207E1F736D11D
:1000E00007C48ECF81B3877881BB089520B3422F98
:1000F00050E021E030E002C0220F331F6A95E2F7A2
:10010000242335232115310519F1FC01E85EFE4F4A
:10011000408141111DC04091230150912401609103
:100120002501709126014F30510561057105A0F13F
:1001300010922301109224011092250110922601A1
:10014000FC01E85EFE4F21E0208380E090E008950E
:10015000232B29F5FC01E85EFE4F2081213011F5AB
:100160004091230150912401609125017091260155
:100170004F30510561057105C0F0109223011092B6
:1001800024011092250110922601FC01E85EFE4F29
:10019000108281E090E0089580E090E0089580E092
:1001A00090E0089580E090E0089580E090E0089568
:1001B0009FEF94BB87B3806F87BB95BB08958FEF8C
:1001C0008ABB1BBA08950F931F93DC019C91943056
:1001D00071F018F4913030F419C0953069F0963010
:1001E00081F014C01796ED91FC91189711C01196EB
:1001F000ED91FC9112970CC01396ED91FC91149720
:1002000007C01596ED91FC91169702C0E0E0F0E072
:100210008091620088237CF4923069F400911D0182
:1002200010911E0120911F013091200145E050E006
:10023000401B510B08C040911D0150911E0160915F
:100240001F017091200190911C01913041F138F013
:10025000923009F44DC0933009F459C066C080E86B
:1002600088BB9F01ADECBCEC34D3969587959695F1
:100270008795969587959C01220F331F880F991FAC
:10028000880F991F880F991F820F931F9F01281BAA
:10029000390BF901E050FF4F808185BB46C080E4F7
:1002A00088BB9F01ADECBCEC14D3AC0156954795CF
:1002B00056954795569547959A010BD396958795F0
:1002C00096958795969587959C01220F331F880FE9
:1002D000991F880F991F880F991F820F931F9A01EA
:1002E000281B390BF901E050FF4F808185BB1DC0F1
:1002F00080E288BB8C918150833030F4FA01EF5E4C
:10030000FE4F808185BB11C08FEF85BB0EC080E1A1
:1003100088BB8C918150833030F4FA01E55FFE4F49
:10032000808185BB02C08FEF85BB80911C0190E06E
:10033000019683709078992324F401978C6F9F6FB6
:10034000019680931C011F910F910895CF93DF9325
:10035000CDB7DEB729970FB6F894DEBF0FBECDBF7D
:1003600002D1C0DE2CDF96D0ADD022DFCE010196C7
:1003700006D17894812C912C5401C12CD12C76017A
:1003800063E070E080E090E0B1DE892BB9F464E0D6
:1003900070E081E090E0AADE892B91F465E070E0E6
:1003A00082E090E0A3DE892B69F466E070E083E0F0
:1003B00090E09CDE892B41F460E007C061E005C05D
:1003C00062E003C063E001C064E0662319F0CE017F
:1003D0000196EAD0CE01019625D280912701909115
:1003E0002801A0912901B0912A0188199909AA0927
:1003F000BB0984369105A105B10578F180902701EC
:1004000090902801A0902901B0902A0180911D01AF
:1004100090911E01A0911F01B09120010196A11D94
:10042000B11D80931D0190931E01A0931F01B093F5
:10043000200180911D0190911E01A0911F01B0919A
:1004400020010697A105B10544F010921D011092FC
:100450001E0110921F01109220018091270190919E
:100460002801A0912901B0912A018C199D09AE099A
:10047000BF090297A105B10508F482CFC0902701FA
:10048000D0902801E0902901F0902A01CE01019638
:100490009ADE76CF82B1886282B9ABE8B0E08C9107
:1004A00081608C93EAE8F0E08081886080838C91A1
:1004B00088608C9380818360808310928300109287
:1004C00082000895E1E6F0E08081806C8083E2E6BE
:1004D000F0E080818F7380838081806480830895C1
:1004E0001F920F920FB60F9211248F939F93AF9389
:1004F000BF9386E082BF8091270190912801A0914F
:100500002901B0912A010196A11DB11D80932701F7
:1005100090932801A0932901B0932A018091210191
:100520009091220101969093220180932101809164
:10053000230190912401A0912501B09126010196FB
:10054000A11DB11D8093230190932401A093250147
:10055000B0932601BF91AF919F918F910F900FBEE5
:100560000F901F90189586E082BF83B7887F83BF66
:1005700083B7846083BF87B7816087BF0895FC011C
:1005800010828AE090E0928381838FE090E09483F0
:10059000838385E090E0968385831086178210928E
:1005A00083001092820008950F931F93662309F42D
:1005B00036C1DC014C91042F10E00730110508F022
:1005C000C2C0F801EA5BFF4F7BC1613039F4FC0126
:1005D0002181328130872783E1E0DCC0623009F479
:1005E000B4C0E42FD7C0613009F4B1C0653009F060
:1005F000B0C0DC0113962D913C91149718963C9352
:100600002E931797E2E0C6C0613009F4A4C06530AC
:1006100009F0A3C0FC012581368130872783E3E000
:10062000B9C0613009F49BC0653009F49AC0E42F69
:10063000B1C0623009F497C06330B9F4DC0111969F
:100640002D913C9112972B5F3F4F12963C932E9326
:1006500011972D33310508F488C025E030E012965B
:100660003C932E931197E42F95C0643009F07FC01E
:10067000FC01218132812550310932832183232BD2
:1006800009F077C02CE330E032832183E42F82C06D
:10069000623009F470C06330B9F4DC0113962D9117
:1006A0003C9114972B5F3F4F14963C932E931397D6
:1006B0002D33310508F461C025E030E014963C93F9
:1006C0002E931397E42F66C0643009F058C0FC01E4
:1006D000238134812550310934832383232B09F06E
:1006E00050C02CE330E034832383E42F53C06230C6
:1006F00009F449C06330B1F4DC0115962D913C91A9
:1007000016972B5F3F4F16963C932E9315972D33DC
:100710003105D8F125E030E016963C932E931597DD
:10072000E42F38C0643099F5FC01258136812550CD
:10073000310936832583232B61F52CE330E03683A2
:100740002583E42F27C0E42F25C0E4E023C0E0E0A8
:1007500021C0E42F1FC0E0E01DC0E42F1BC0E0E07B
:1007600019C0E0E017C0E5E015C0E42F13C0E42F86
:1007700011C0E42F0FC0E6E00DC0E42F0BC0E42F42
:1007800009C0E42F07C0E0E005C0E42F03C0E42F58
:1007900001C0E42FE41709F442C0DC01EC938E2F72
:1007A00090E087309105B8F5FC01E35BFF4F88C00E
:1007B0001BBA109283001092820031C081E08BBB83
:1007C00080E48093620080EA90E0909383008093BD
:1007D000820025C082E08BBB80E88093620080EAC3
:1007E00090E0909383008093820019C084E08BBBDB
:1007F00080E4809362008AEF90E09093830080937E
:1008000082000DC081E08BBB0AC082E08BBB07C0B9
:1008100084E08BBB04C010928300109282001F9171
:100820000F910895FC01908191509330C0F5809113
:10083000270190912801A0912901B0912A014091AE
:100840002B0150912C0160912D0170912E01841B80
:10085000950BA60BB70B883E9340A105B10578F127
:100860008091270190912801A0912901B0912A013E
:1008700080932B0190932C01A0932D01B0932E0116
:1008800087819085009719F00197908787838781EA
:100890009085892BA1F4CF0165E086CE08958091E3
:1008A000270190912801A0912901B0912A018093FC
:1008B0002B0190932C01A0932D01B0932E0108954C
:1008C000EE0FFF1F0024001C0BBE0790F691E02DD9
:1008D0000994A29FB001B39FC001A39F700D811D19
:1008E0001124911DB29F700D811D1124911D089539
:0408F000F894FFCFAA
:1008F400C0F9A4B0999282D880987FFFFECFF7FF09
:08090400FFFEFFFFFFF7F90001
:00000001FF
